:100000000C943E000C9448000C9448000C9448005A
:100010000C9448000C9448000C9448000C94480040
:100020000C9448000C9448000C9448000C94480030
:100030000C9448000C9448000C9448000C94480020
:100040000C9448000C9448000C9448000C94480010
:100050000C9448000C9448000C9448000C94480000
:100060000C9448000C9448000C9448000C944800F0
:100070000C9448000C9448000C94480011241FBEB6
:10008000CFEFCDBFDFE3DEBF0E9405040C94D9049F
:100090000C940000FC01680F791F8FEF9FEFE617AB
:1000A000F70709F408952191822728E0AC014170F7
:1000B000552796958795452B21F031E0832730EA27
:1000C0009327215099F7EBCF54576F4F7F4F809173
:1000D0000210837079F58DE994E084BF909300104D
:1000E0008091021080FD28C0D90180E0E82FE695BC
:1000F000F0E0EE0FFF1FE40FF51F11962C91119702
:100100009C91322F292F208331838E5F1296803469
:1001100069F78DE993E084BF9093001080910210FD
:1001200080FD0CC08091021082FB882780F991E04D
:1001300089270895A895CBCFA895D2CFA895EECFC3
:10014000109206081092050881E08093220488ED41
:1001500090E084BF90931001E0E0F6E00995FFCFB6
:10016000CF92DF92FF920F931F93CF93DF938C0177
:100170000C5A1F4FF8012081FF24F394222351F1E0
:10018000DC016C01F0E1CF0ED11CEC01C05BDF4F54
:10019000488159816A817B81ED91FC91119796018B
:1001A00012968D919C910995F82E40E450E06FEFE6
:1001B00070E0C6010E94D20488819981AA81BB8126
:1001C000805C9F4FAF4FBF4F88839983AA83BB83C7
:1001D000F80110828F2DDF91CF911F910F91FF9029
:1001E000DF90CF9008952F923F924F925F926F923F
:1001F0007F928F929F92AF92BF92CF92DF92EF92B7
:10020000FF920F931F93CF93DF93CDB7DEB7259760
:10021000CDBFDEBF8C839D83262E4A012A833B837C
:100220002C0122E0420E511C3C018EE4680E711C30
:10023000EC80FD80EEE2EE0EF11CCC80DD80F5E07E
:10024000CF0ED11C82E0A82EB12C8A819B81019710
:10025000B8F480E02596CDBFDEBFDF91CF911F912E
:100260000F91FF90EF90DF90CF90BF90AF909F9055
:100270008F907F906F905F904F903F902F90089558
:1002800020E83CE0A8954091040847FF23C0309047
:100290000008EC81FD8167A170A561157105F1F081
:1002A000CB010196EC81FD8187A390A78F01060FFA
:1002B000171FF8013082EC81FD8183309105B9F57B
:1002C00082819CEF980F913258F117A210A611A6C7
:1002D00012A624C021503109A9F6B9CFEC81FD81C5
:1002E00083A5811108C0FAEA3F12AFCF21E0EC816B
:1002F000FD8123A7AACF85E538120AC02AEAEC813E
:10030000FD8120833182A7A2B0A611A612A69DCF9F
:100310008AEAEC81FD81381609F497CF13A695CFB0
:1003200090E00396EC81FD8181A792A78ECF21A555
:1003300032A52115310509F488CF8217930709F0FA
:1003400084CF42814450498363507109C2010E94A5
:100350004A00F80131972081332DEC81FD8117A2ED
:1003600010A611A612A613A68217930709F06DCF47
:10037000838184A7148115A72981F3012083422F4B
:1003800050E0B601C7010E94C904211629F01123CB
:1003900019F01A3F09F059CF83E2EC81FD81BC9638
:1003A000D40101900D928A95E1F781E053CFEF924D
:1003B000FF921F93CF93DF93CDB7DEB7CA54D10915
:1003C000CDBFDEBF962F122F88A769A72B962FAF20
:1003D0002B97342FDE019A96FA01BD0121912D93BE
:1003E0002E2F231B2117D0F3E12EF12C2AEA29838B
:1003F00025E52A8324E0210F2B838C839D83A7018D
:10040000CE0106960E94C904B7016D5F7F4FCE01F1
:1004100003960E944A00E6E0F0E0EC0FFD1FEE0DAF
:10042000FF1D8083FE01EE0DFF1D9783195FCE0136
:100430000196FC012091040825FF28C021912093FA
:1004400002082E2F281B2117A8F38091040886FF8D
:100450001FC080E48093040887EE93E00197F1F7D2
:1004600000C0000080EA9FE0A8952091040827FDC5
:10047000209100080197C1F7C65BDF4FCDBFDEBFFB
:10048000DF91CF911F91FF90EF900895A895D2CF63
:10049000A895DBCF2F923F924F925F926F927F92FF
:1004A0008F929F92AF92BF92CF92DF92EF92FF9284
:1004B0000F931F93CF93DF93CDB7DEB7CF57D109FB
:1004C000CDBFDEBF5C01962EDA011296CD90DC9096
:1004D000F12CE12CD701C6010197A109B1098115C1
:1004E0009443A105B10548F0198221E0AE014F5FA8
:1004F0005F4F86E50E94D70110C1DA0114960D9175
:100500001C9160E088E090E00E94AA04FE013B9606
:100510008BE4DF011D928A95E9F784E690E08983F8
:100520009A831B821C82CD82DE82EF82F886098745
:100530001A878FEF9FEF8F87988B40E450E06FEF23
:1005400070E0CE0141960E94D20481E0ED968FAF1B
:10055000ED9721E0AE0144585F4F692D86E50E947A
:10056000D7018E010A5A1F4F28EB3BE0A801692DE5
:10057000C5010E94F300882309F4CFC0F8018081EF
:10058000873509F0F7C022A1223070F32280338032
:100590006101F12CE12C4B855C856D857E85C4164F
:1005A000D506E606F70609F0DDC08D819E81AF8194
:1005B000B8858C159D05AE05BF0508F4D7C022503F
:1005C000EE962FAFEE97422E512C712C612C8C1988
:1005D0009D09AE09BF0984159505A605B70508F460
:1005E000C5C0A22FB0E08F8598899F01201B310BD9
:1005F0002A173B07F0F08F87988B440D551D661D19
:10060000771D4B875C876D877E87A8014C5F5F4FA6
:10061000C258DF4F48835983CE57D0408C2C8C2D45
:100620008219EE96EFADEE978E17B8F0F12CE12C13
:1006300061C02481822728E0822E9C01217033270B
:1006400096958795232B21F021E0822720EA922797
:100650008A948110F2CF3196C8CF2601370150EC31
:10066000452266968FAD6697811130C066968FAD34
:100670006697882309F468C0C258DF4FA881B98102
:10068000CE57D0402D91C258DF4FA883B983CE57A3
:10069000D040D701C6018F739927AA27BB27E1E174
:1006A000F0E0EC0FFD1F8E0F9F1FDC012C93882DB7
:1006B0008F738F5F66968FAF6697803409F44BC057
:1006C000BFEFCB1ADB0AEB0AFB0AA8CF65968CAD0D
:1006D0009DADAEADBFAD6597481659066A067B065F
:1006E00029F2CE0101960E94B0008111BFCF23E014
:1006F000E22EF12C81E0E114F10409F080E0EC96A7
:100700008FAFEC9721E0AE0145585F4F692D87E52B
:100710000E94D701EF2809F427CFC158DF4FCDBF82
:10072000DEBFDF91CF911F910F91FF90EF90DF908F
:10073000CF90BF90AF909F908F907F906F905F9081
:100740004F903F902F90089565964CAE5DAE6EAE83
:100750007FAE659791CFCE0101960E94B0008111C6
:10076000AFCFC5CFEE24E394F12CC4CF82E0E82EC6
:10077000F12CC0CF883509F0F7CECE0101960E944A
:10078000B000882399F14B855C856D857E858D81D0
:100790009E81AF81B885481759076A077B0789F59D
:1007A0002F85388989859A852817390761F565EA83
:1007B00088E090E00E94AA0411E0EB961FAFEB974F
:1007C00021E0AE0146585F4F692D88E50E94D701B0
:1007D000FFE728E341E0F15020404040E1F700C04E
:1007E000000088ED84BF1093410097CF83E0EA9624
:1007F0008FAFEA9721E0AE0147585F4F692D88E53A
:1008000079CE84E0F4CF85E0F2CFCF93DF93CDB7FC
:10081000DEB7C559D109CDBFDEBF88ED90E084BFFA
:1008200090936100FCB21CBA98E084BF90930001E1
:100830008091008C9091018C019639F088E090E0D5
:100840000E94A20401E0811101C000E081E08093D8
:10085000210426EB32E020930808309309088093A6
:10086000050883E08093070880EC8093060884E005
:1008700090E00E94A204182F18A619A61AA61BA67B
:100880001CA687EBF81219C083E0F82E011102C0F4
:10089000FF24F394EE24E394DD24DA9428EB3BE088
:1008A000AE01405B5F4F612FCE0101960E94F300C5
:1008B000811120C001111CC0F1CF002349F324ECA9
:1008C00039E0AE014D585F4F612FCE0101960E9475
:1008D000F300882369F0E4968FADE497863541F400
:1008E000AE014D585F4F612FCE0101960E944A0222
:1008F0000E94A00061968FAD61978435B9F4E496AB
:10090000EFAEE497E596DFAEE597E696DFAEE697C5
:10091000E796FFAEE797E896EFAEE89725E0AE01E1
:100920004D585F4F612F0E94D701B8CF863509F02F
:10093000B5CFAE01405B5F4F612FCE0101960E94A3
:100940004A02ACCF03D0808199270895FC01E05082
:10095000FC4E0895262F0E94A6040080021619F06E
:100960000E94B604019701970895262FAF93BF9375
:10097000E0E0F0E1328131FDFDCFDC01A050BC4E62
:100980002C932DE924BF23E020830196BF91AF91E2
:100990000895FB01DC0102C001900D9241505040CE
:1009A000D8F70895DC0101C06D9341505040E0F745
:0609B0000895F894FFCF4A
:00000001FF
