:100C00000C943E060C9450060C9450060C948907E4
:100C10000C9450060C9450060C9450060C945006FC
:100C20000C9450060C9450060C9450060C945006EC
:100C30000C9450060C94CD070C9450060C9450065E
:100C40000C9450060C9450060C9450060C945006CC
:100C50000C9450060C9450060C9450060C945006BC
:100C60000C9450060C9450060C9450060C943207C9
:100C70000C9450060C9450060C94500611241FBE80
:100C8000CFEFCDBFDFE3DEBF28E3A0E0B8E301C0D4
:100C90001D92A03CB207E1F70E94F5070C94A41046
:100CA0000C9400062091A338222379F08091A43877
:100CB000882359F060919E3870E0860F972F911D20
:100CC000821B91090E944B10089580E00895FC0159
:100CD000680F791F8FEF9FEFE617F70709F4089564
:100CE0002191822728E0AC01417055279695879580
:100CF000452B21F031E0832730EA9327215099F7E3
:100D0000EBCFFC018081883201F18F7E8034E9F0E5
:100D100088E2808380E021819081291710F0118280
:100D200080E092819D3318F08CE3828380E094818F
:100D30009B3F10F0148280E09581992341F09D3310
:100D400018F08CE3858380E0089581E0E4CF81E0B2
:100D5000F9CFEF92FF920F931F93CF93DF93CDB70D
:100D6000DEB7A397CDBFDEBF962F89836A832BA3FF
:100D7000142FDE011396FA01BD013E2F311B3217ED
:100D800008F468C0022F10E0780137E0E30EF11C90
:100D90003AEA3093073835E5309308382C5F2093D2
:100DA000093880930A3890930B38A8018CE098E3B7
:100DB0000E943610B8016D5F7F4F89E098E30E9472
:100DC0006706F801E45FF74C8083F801E35FF74CB6
:100DD000908387EE93E00197F1F700C0000087E071
:100DE00098E38093053890930638E0920338F092A8
:100DF0000438109201381092023810927C3881E049
:100E000080930038E7E0F8E38091040885FFFCCF89
:100E1000819180930208CF01875098438E159F05DA
:100E200098F38091040886FFFCCF80E48093040847
:100E300087EE93E00197F1F700C0000010920038B0
:100E4000A396CDBFDEBFDF91CF911F910F91FF9091
:100E5000EF90089531913D9390CF20E050E040E035
:100E60000C94A9061F920F920FB60F9211242F9384
:100E70003F934F935F938F939F93EF93FF93809153
:100E800001089091000880910038882389F14091F1
:100E900001385091023820910338309104384217BC
:100EA0005307C8F42091013830910238E091053899
:100EB000F0910638E20FF31F8081891719F081E065
:100EC00080937C388091013890910238019680930C
:100ED000013890930238FF91EF919F918F915F912C
:100EE0004F913F912F910F900FBE0F901F9018952B
:100EF000809172388F5F8F7320917338281759F360
:100F0000E0917238F0E0EE5CF74C90838093723899
:100F1000E2CF1F920F920FB60F9211244F935F935F
:100F20006F937F938F939F938091090484FF13C0E5
:100F300040912E3850912F3860913038709131386F
:100F40004093823850938338609384387093853807
:100F500091E09093863885FF13C040912E385091D0
:100F60002F38609130387091313840937D385093EC
:100F70007E3860937F387093803891E09093813809
:100F8000809309049F918F917F916F915F914F9111
:100F90000F900FBE0F901F9018951F920F920FB6D3
:100FA0000F9211248F939F93AF93BF9381E080930F
:100FB000460A80912E3890912F38A0913038B09108
:100FC00031380196A11DB11D80932E3890932F3892
:100FD000A0933038B0933138BF91AF919F918F91EA
:100FE0000F900FBE0F901F901895CF93DF93CDB742
:100FF000DEB7CF55D109CDBFDEBF88ED90E084BF0D
:101000009093100184BF909361008CE88093010459
:1010100092E7909302048093060483E08093140483
:101020008093150495E0909321042FE13EE42093F2
:101030004C0A30934D0A91E09093450A1092410A70
:101040009093400A26EB32E0209308083093090879
:1010500091E8909305088093070880EC8093060838
:1010600046E050E070E060E0CE0101960E94FB0F88
:101070008981809396388A81809397388B81809379
:1010800098388C81809399388D8180939A388E819D
:1010900080939B3886E998E30E94810681111AC0EB
:1010A000809196388983809197388A838091983887
:1010B0008B83809199388C8380919A388D8380912D
:1010C0009B388E8346E050E070E060E0CE010196F0
:1010D0000E94071080919B3890919A3890938D3898
:1010E000882309F4EAC08D3308F08CE348EE53E01E
:1010F000849F9001859F300D112420938E3830936A
:101100008F38109290381092913810929238109235
:101110009338109294381092953810928C388FEF43
:10112000890F8A3F08F0CBC022E030E02093893855
:1011300030938A3890938B3870E1E72EF12C10E0D1
:10114000B12CD12CC12CC7010E94FF0F082FC70161
:1011500001960E94FF0F0F3F41F0C114D10409F422
:10116000B5C0902F9B1997FFB7C022E0E20EF11C8B
:1011700030E3E316F10439F7CD2809F410E02091AB
:10118000963820939E388091973880939F3880912D
:1011900098388093A0389091993892FB882780F9ED
:1011A0008093A138892F81708093A2381092A33840
:1011B0001092A4381092A5381092A6381092A73831
:1011C0001092A8381092A9381092BA381092BB38F1
:1011D0001092BC381092BD381092BE381092BF38B1
:1011E0001092AA381092AB381092AC381092AD38E9
:1011F0001092AE381092AF381092B0381092B138C9
:101200001092B2381092B3381092B4381092B538A8
:10121000882329F0112319F081E0211708F480E0D8
:1012200080FF5DC091FD5BC01093A33881E0809387
:10123000A53881E090E080939C3890939D3810927F
:10124000B6381092B7381092B8381092B9388091E9
:101250009C3890919D38809387389093883888ED9A
:1012600098E084BF909300017894F89480912E3890
:1012700090912F38A0913038B0913138789418A6D9
:1012800019A61AA61BA61CA642E0842E912C52E099
:10129000652E712CA895F894C0902E38D0902F38D8
:1012A000E0903038F090313878945601A81AB90A95
:1012B0002AEA222E3324339423C081E017CF1092E0
:1012C000893810928A3810928B3836CF182FB02E6A
:1012D000CC24C394D12C49CF182FB02E46CF81E017
:1012E0008093BB388093BE3810929C3810929D3802
:1012F000A6CF8CA58111B5C14AEA541201C03CA603
:101300009091733880917238981305C58091863812
:10131000882309F456C0209082383090833840905A
:10132000843850908538109286388091AA389091F0
:10133000AB38A091AC38B091AD38A2019101281B17
:10134000390B4A0B5B0BDA01C9014497A105B105C2
:10135000C0F12092AA383092AB384092AC3850920B
:10136000AD388091BB38882329F08091BC388F5FDD
:101370008093BC3880919C3890919D38029709F5F4
:101380008091A33860919E380E943F109F5F909398
:10139000A3381092BA380E945206811112C081E01F
:1013A00090E080939C3890939D382092B63830928C
:1013B000B7384092B8385092B9381092BE3810926F
:1013C000BF3880918138882309F44EC080919C38C1
:1013D00090919D3800917D3810917E3820917F3812
:1013E00030918038109281384091AE385091AF38AA
:1013F0006091B0387091B13818012901241A350A6A
:10140000460A570AB201A10144315105610571052F
:1014100058F10093AE381093AF382093B038309322
:10142000B138892B09F58091BD388111A0C441E004
:101430004093BD3880919F3860919E380E943F1044
:101440009F5F9093A3384093A5381092BC38809149
:10145000BB38882309F4A4C40093B6381093B73876
:101460002093B8383093B93880919C3890919D384A
:10147000009709F4A8C4029709F4EAC4A114B104BE
:1014800091F18091893890918A38019761F5209186
:10149000903830919138A50170E060E0420F531F01
:1014A000611D711D80918E3890918F38B0E0A0E061
:1014B000481759076A077B0708F476C580918D386D
:1014C0009FEF980F9A3F08F068C580938B38109271
:1014D0008C3842E050E04093893850938A3810921B
:1014E00090381092913880917C388823A9F010921E
:1014F0007C388091893890918A38029769F41092EB
:101500008B3810928C381092923886E08093933802
:101510001092893810928A389091BE388091A13803
:10152000981709F448C580E88093050480919238A3
:10153000882309F444C584E08093050480917838B9
:1015400090917938A0917A38B0917B3816012701B3
:10155000281A390A4A0A5B0AC201B10100919C3873
:1015600010919D38209174383091753840917638BB
:10157000509177382C193D094E095F091216130650
:10158000140615060CF01FC52DE730E040E050E0D2
:101590000E945F10217009F41FC5C701B60124E144
:1015A00030E040E050E00E945F1021E030E0672B27
:1015B000682B692B11F030E020E0232B09F40CC5D7
:1015C00088E080930504809187389091883880174F
:1015D000910709F444C001301105C9F58091A23882
:1015E0008823A9F14090A338442089F190E1A92EE5
:1015F000B12C512C312C10E000E0212CC5010E94AF
:10160000FF0F8F3F41F00115110509F4E9C4982F30
:10161000931997FFEAC4239422E0A20EB11C30E193
:101620002312ECCF012B09F4E3C401E0050D0F7088
:1016300061E0630D10E0085F1F4F000F111FC8012C
:101640000E941710642DC80101960E941710809106
:101650009C3890919D388093873890938838C60144
:1016600019CE55E5551207C029825A8268A679A677
:101670001AA61BA645CE8AEA581609F441CE1CA626
:101680003FCE90E003968AA79BA73ACE2AA53BA51A
:101690002115310509F434CE8217930709F030CEB5
:1016A0004B80B80163507109CE0103960E94670612
:1016B000FE01E00FF11F2081352D18A619A61AA6EC
:1016C0001BA61CA68217930709F01ACE4CEF440DF7
:1016D0000C810DA71D811EA760964FAF609750E04B
:1016E000BE016A5F7F4FCE018F960E9436106096D2
:1016F0002FAD6097ECE4F1EA90E080E030810313D5
:101700003BC033E0880F991F3A95E1F7FC01E45B99
:10171000FE454381548141305105C9F1A0F1423069
:101720005105C1F1845B9E45FC018581968197FD41
:1017300004C02817190609F0E3CD213208F0E0CDE6
:10174000909108049270013541F1023509F4A3C06B
:10175000003509F048C081E090E08093893890938B
:101760008A3810928B3810928C38109292381092DE
:1017700090381092913837C001963896843191058F
:1017800009F0BCCFBDCD11501A3F60F2B9CD112385
:1017900049F2B6CD1B3F30F2B3CD213021F58FA5F4
:1017A0003FEF380F3A3FF8F44091893850918A382A
:1017B00041305105C1F49923B1F0909192389111C3
:1017C00012C080938B3810928C3880938D38209380
:1017D000943820939238209395388092893890924B
:1017E0008A381092933880919538882329F0609137
:1017F0008B3881E50E942D0780919438882331F041
:1018000060918B3884E090E00E9417101092943819
:10181000109295388091893890918A3810918B3840
:101820008230910509F010E04EA5442349F002975B
:1018300021F481E090918B38941380E080FF38CDC3
:101840008DA5803309F4BCC108F06AC0833009F467
:10185000B3C0F0F5813009F49EC0823009F028CD84
:10186000112309F425CD60968FAD6097811708F498
:101870001FCDEEE2F0E0EC0FFD1FE10FF11D8081C6
:10188000882309F415CD90919E38981708F410CD4F
:101890008093A4380DCD8091893890918A38019732
:1018A00009F0A1CF80918D389FEF980F9A3F48F4AF
:1018B00080938B3810928C388092893890928A3835
:1018C00056CF8AEF80938B3881E080938C38F4CFA9
:1018D000803109F4FAC0803209F432C1843009F051
:1018E000E7CC80919C3890919D388D7F1092BE38C6
:1018F000892B81F481E090E080939C3890939D380F
:10190000C092B638D092B738E092B838F092B93871
:101910001092BF38442309F4CBCC612F84E049C036
:10192000833509F4C7C120F5803409F4A2C181349C
:1019300009F4B7C1813309F0BBCC80919638619628
:101940008FAF61978091973862968FAF6297809141
:10195000983863968FAF63978091993864968FAF6C
:10196000649724E0AE01405B5F4F612F81E3E3C0E9
:10197000853509F4C8C108F4ADC1803F09F098CCA1
:1019800081E061968FAF619721E0AE01405B5F4FD0
:10199000612F80EFD0C08FA5882331F090919E38C1
:1019A000981710F08093A438612F81E0442309F444
:1019B0007FCC0E942D077CCC80919C3890919D38E3
:1019C0008330910509F050C01092A6388091A53857
:1019D000882399F081E090E080939C3890939D3823
:1019E000C092B638D092B738E092B838F092B93891
:1019F0001092BE381092BF385BCC1092BD3881E097
:101A00009091A738911180E08093BB381092BC3838
:101A10001092BA3881E08093BE381092BF38C092DD
:101A2000AE38D092AF38E092B038F092B138C09270
:101A3000AA38D092AB38E092AC38F092AD38C09270
:101A4000B238D092B338E092B438F092B5381092F0
:101A50009C3810929D38C092B638D092B738E09238
:101A6000B838F092B93824CC019709F021CC809194
:101A7000A538811104C084E08093A63819CC8091E8
:101A8000A438882309F414CC0E945206882309F450
:101A90000FCC1092BA381092BF3881E08093BE38D4
:101AA000C092B238D092B338E092B438F092B538E0
:101AB000C092AA38D092AB38E092AC38F092AD38F0
:101AC00080929C3890929D38C6CF8091A3386196C1
:101AD0008FAF61978091A43862968FAF62978091A3
:101AE0009C3890919D388430910540F584519E45F5
:101AF000FC01808163968FAF63978091A6386496CE
:101B00008FAF64978091A73865968FAF6597909156
:101B1000A8388091A93866969FAF669767968FAF71
:101B2000679781E068968FAF689728E0AE01405BC9
:101B30005F4F612F80E10E94A906BACB83E0DACF24
:101B40001092A6381092A5381092BD3881E090917D
:101B5000A738911180E08093BB381092BC38109266
:101B6000BA3881E08093BE381092BF38C092AE3848
:101B7000D092AF38E092B038F092B138C092AA3823
:101B8000D092AB38E092AC38F092AD38C092B23817
:101B9000D092B338E092B438F092B53810929C38B5
:101BA00010929D38C092B638D092B738E092B838CB
:101BB000F092B938612F80E2442309F479CBF9CE51
:101BC00086E0E6E9F8E3DE01A65ABF4F01900D92E8
:101BD0008A95E1F78FA56B968FAF6B9788A96C9666
:101BE0008FAF6C9789A96D968FAF6D978AA96E9606
:101BF0008FAF6E97CE01865A9F4F0E9481066B96DB
:101C00008FAD6B9761968FAF61976C968FAD6C9728
:101C100062968FAF62976D968FAD6D9763968FAF1B
:101C200063976E968FAD6E9764968FAF64976F963D
:101C30008FAD6F9765968FAF6597A0968FADA09784
:101C400066968FAF669744E050E070E060E0CE01AA
:101C5000805B9F4F0E94071086E0FE01E65AFF4F0F
:101C6000A6E9B8E301900D928A95E1F7612F80E330
:101C7000A0CE2FA530E0A8EEB3E00E9481106C0D3D
:101C80007D1D8E1D9F1D60937438709375388093F1
:101C9000763890937738612F80E4442309F408CB99
:101CA00088CEC0927838D0927938E0927A38F09223
:101CB0007B38FECAFE01E05BFF4FA3E0B1E1AF015C
:101CC0008D918193AD3021E1B207D1F72AE0612FE8
:101CD00083E531CF81E061968FAF619762968FAFD8
:101CE00062978FE063968FAF639783E064968FAFC0
:101CF000649765961FAE659725E0AE01405B5F4F28
:101D0000612F84E518CF87EB8CBB88ED91E084BF11
:101D100090934100CDCAE0917338F0E0EE5CF74C4F
:101D20005080809173388F5F8F738093733808A5CC
:101D300019A50115110509F4DCCAC801019688A787
:101D400099A7E1E0F0E0EC0FFD1FE00FF11F5082DA
:101D50008330910509F09ACC8B819CEF980F9132DA
:101D600008F48FCC18A619A61AA61BA688CC8091B9
:101D7000BC388093A7381092BB38883289F08F7EA8
:101D8000803471F083E08093A6381092BE381092B0
:101D9000BF3883E090E080939C3890939D385CCB73
:101DA0001092BE3881E090E080939C3890939D38EB
:101DB0000093B6381093B7382093B8383093B938B9
:101DC0001092BF3851CB8091B6389091B738A0911E
:101DD000B838B091B938A7019601281B390B4A0BC6
:101DE0005B0BDA01C901803A9F40A105B10508F4F7
:101DF00045CB8091BD388823A9F01092BB38109252
:101E0000BE3881E090E080939C3890939D38C092DA
:101E1000B638D092B738E092B838F092B93810920C
:101E2000BF382CCB82E08093A6381092BE38109237
:101E3000BF3883E090E080939C3890939D38C092A7
:101E4000B638D092B738E092B838F092B93816CB9D
:101E50008091B2389091B338A091B438B091B53830
:101E600016012701281A390A4A0A5B0AD201C10160
:101E7000803A9F40A105B10510F085E0D4CF1091C4
:101E8000BF388091AA389091AB38A091AC38B0910E
:101E9000AD3816012701281A390A4A0A5B0AD2010D
:101EA000C101883C9105A105B10500F111111EC0C9
:101EB0008091BA38833030F081E08093A638109258
:101EC000BE38B7CF8F5F8093BA388091A838909191
:101ED000A93801968093A8389093A938C092AA385F
:101EE000D092AB38E092AC38F092AD380E945206F6
:101EF000813019F5111121C09091A0384CE350E0C8
:101F0000491B510970E060E00091AA381091AB388C
:101F10002091AC383091AD3816012701201A310AD2
:101F2000420A530A92018101041715072607370751
:101F300020F01092BE388093BF388091BF3888233C
:101F400009F49CCA8091AA389091AB38A091AC3822
:101F5000B091AD38A7019601281B390B4A0B5B0BDA
:101F6000DA01C901843B9105A105B10508F486CACF
:101F70008091A4388093A33881E090E080939C38CE
:101F800090939D38C092B638D092B738E092B83866
:101F9000F092B9381092BE3842CF8AEF80938B38D6
:101FA00081E080938C3895CAA20EB31EA09290381F
:101FB000B092913898CA80E880930604B7CA84E04A
:101FC00080930604BBCA0330110509F0E6CA24EF6A
:101FD00031E040E050E0DCCA88E080930604F3CAB8
:101FE000522C382E01E010E016CB522C382E13CB99
:101FF00000E061E01FCB60507C4E0C94361003D0A3
:10200000808199270895FC01E050FC4E0895DC0181
:10201000A40FB51F4150504048F0CB01840F951FCD
:102020002E910E94181041505040D0F70895262F4D
:102030000E9403100080021619F00E9423100197DD
:1020400001970895262FAF93BF93E0E0F0E132812E
:1020500031FDFDCFDC01A050BC4E2C932DE924BFF7
:1020600023E020830196BF91AF910895FB01DC012D
:1020700002C001900D9241505040D8F70895991B2D
:1020800079E004C0991F961708F0961B881F7A956F
:10209000C9F78095089597FB072E16F4009407D092
:1020A00077FD09D00E94901007FC05D03EF4909572
:1020B00081959F4F0895709561957F4F0895A1E296
:1020C0001A2EAA1BBB1BFD010DC0AA1FBB1FEE1FB2
:1020D000FF1FA217B307E407F50720F0A21BB30BFD
:1020E000E40BF50B661F771F881F991F1A9469F779
:1020F00060957095809590959B01AC01BD01CF01D5
:102100000895A29FB001B39FC001A39F700D811DD0
:102110001124911DB29F700D811D1124911D0895F0
:10212000AA1BBB1B51E107C0AA1FBB1FA617B707FD
:1021300010F0A61BB70B881F991F5A95A9F7809519
:0C2140009095BC01CD010895F894FFCFEC
:10214C00013FA2000001000102F0A10100FFFF000D
:10215C0003F8A1010000000004FBA1020000000133
:10216C001000A20000000001200BA20200000001E0
:10217C003010A20000040001311BA200000000017D
:10218C004026A20000010001412FA2010000000026
:10219C005038A201000000005143A20100010001CF
:1021AC00524FA201000000005359A2000000000190
:1021BC005461A20000000001556DA2020000000055
:1021CC00567EA200000400015787A20000FFFF0109
:1021DC00588FA20000000001F096A2000000000140
:1021EC00010002035345545F414C4C00474F0053D0
:1021FC00544F50004745545F535441545553004875
:10220C004F4D45005345545F434F4E464947004799
:10221C0045545F434F4E464947004944454E544947
:10222C004659004C45445F53594E4300454E554D5D
:10223C005F524553455400454E554D5F41535349EC
:10224C00474E00454E554D5F444F4E450047455453
:10225C005F554944004745545F56455253494F4ECC
:10226C0000454E5445525F424F4F544C4F414445EC
:10227C00520046575F424547494E0046575F44411E
:0F228C0054410046575F454E440050494E4700AD
:0400000300000C00ED
:00000001FF
