:100000000C943E000C9450000C9450000C94890108
:100010000C9450000C9450000C9450000C94500020
:100020000C9450000C9450000C9450000C94500010
:100030000C9450000C94CD010C9450000C94500082
:100040000C9450000C9450000C9450000C945000F0
:100050000C9450000C9450000C9450000C945000E0
:100060000C9450000C9450000C9450000C943201ED
:100070000C9450000C9450000C94500011241FBE9E
:10008000CFEFCDBFDFE3DEBF28E3A0E0B8E301C0E0
:100090001D92AC3BB207E1F70E94F5010C94C60A31
:1000A0000C94000020919F38222379F08091A03891
:1000B000882359F060919A3870E0860F972F911D30
:1000C000821B91090E946D0A089580E00895FC0149
:1000D000680F791F8FEF9FEFE617F70709F4089570
:1000E0002191822728E0AC0141705527969587958C
:1000F000452B21F031E0832730EA9327215099F7EF
:10010000EBCFFC018081883201F18F7E8034E9F0F1
:1001100088E2808380E021819081291710F011828C
:1001200080E092819D3318F08CE3828380E094819B
:100130009B3F10F0148280E09581992341F09D331C
:1001400018F08CE3858380E0089581E0E4CF81E0BE
:10015000F9CFEF92FF920F931F93CF93DF93CDB719
:10016000DEB7A397CDBFDEBF962F89836A832BA30B
:10017000142FDE011396FA01BD013E2F311B3217F9
:1001800008F468C0022F10E0780137E0E30EF11C9C
:100190003AEA3093073835E5309308382C5F2093DE
:1001A000093880930A3890930B38A8018CE098E3C3
:1001B0000E94580AB8016D5F7F4F89E098E30E9462
:1001C0006700F801E45FF74C8083F801E35FF74CC8
:1001D000908387EE93E00197F1F700C0000087E07D
:1001E00098E38093053890930638E0920338F092B4
:1001F000043810920138109202381092783881E059
:1002000080930038E7E0F8E38091040885FFFCCF95
:10021000819180930208CF01875098438E159F05E6
:1002200098F38091040886FFFCCF80E48093040853
:1002300087EE93E00197F1F700C0000010920038BC
:10024000A396CDBFDEBFDF91CF911F910F91FF909D
:10025000EF90089531913D9390CF20E050E040E041
:100260000C94A9001F920F920FB60F9211242F9396
:100270003F934F935F938F939F93EF93FF9380915F
:1002800001089091000880910038882389F14091FD
:1002900001385091023820910338309104384217C8
:1002A0005307C8F42091013830910238E0910538A5
:1002B000F0910638E20FF31F8081891719F081E071
:1002C000809378388091013890910238019680931C
:1002D000013890930238FF91EF919F918F915F9138
:1002E0004F913F912F910F900FBE0F901F90189537
:1002F000809172388F5F8F7320917338281759F36C
:10030000E0917238F0E0EE5CF74C908380937238A5
:10031000E2CF1F920F920FB60F9211244F935F936B
:100320006F937F938F939F938091090484FF13C0F1
:1003300040912E3850912F3860913038709131387B
:1003400040937E3850937F38609380387093813823
:1003500091E09093823885FF13C040912E385091E0
:100360002F386091303870913138409379385093FC
:100370007A3860937B3870937C3891E090937D3825
:10038000809309049F918F917F916F915F914F911D
:100390000F900FBE0F901F9018951F920F920FB6DF
:1003A0000F9211248F939F93AF93BF9381E080931B
:1003B000460A80912E3890912F38A0913038B09114
:1003C00031380196A11DB11D80932E3890932F389E
:1003D000A0933038B0933138BF91AF919F918F91F6
:1003E0000F900FBE0F901F901895CF93DF93CDB74E
:1003F000DEB7CF55D109CDBFDEBF88ED90E084BF19
:10040000909361008CE88093010492E7909302043A
:100410008093060483E0809314048093150495E090
:10042000909321042FE13EE420934C0A30934D0A2F
:1004300091E09093450A1092410A9093400A26EB6E
:1004400032E0209308083093090891E8909305085A
:100450008093070880EC8093060846E050E070E047
:1004600060E0CE0101960E941D0A89818093923836
:100470008A81809393388B81809394388C81809388
:1004800095388D81809396388E818093973882E954
:1004900098E30E94810081111AC08091923889836B
:1004A000809193388A83809194388B83809195389A
:1004B0008C83809196388D83809197388E8346E027
:1004C00050E070E060E0CE0101960E94290A809120
:1004D00097389091963890938938882309F4E7C02B
:1004E0008D3308F08CE348EE53E0849F9001859FA4
:1004F000300D112420938A3830938B3810928C3829
:1005000010928D3810928E3810928F381092903849
:1005100010929138109288388FEF890F8A3F08F037
:10052000C8C022E030E0209385383093863890931D
:100530008738A0E1EA2EF12C10E0B12CD12CC12C8F
:10054000C7010E94210A082FC70101960E94210AB3
:100550000F3F41F0C114D10409F4B2C0902F9B1990
:1005600097FFB4C022E0E20EF11C30E3E316F10481
:1005700039F7CD2809F410E02091923820939A3869
:100580008091933880939B388091943880939C38E5
:100590009091953892FB882780F980939D38892F18
:1005A000817080939E3810929F381092A0381092DC
:1005B000A1381092A2381092A3381092A438109249
:1005C000A5381092B6381092B7381092B8381092F9
:1005D000B9381092BA381092BB381092A6381092DF
:1005E000A7381092A8381092A9381092AA38109201
:1005F000AB381092AC381092AD381092AE381092E1
:10060000AF381092B0381092B138882329F01123F6
:1006100019F081E0211708F480E080FF5AC091FDB5
:1006200058C010939F3881E08093A13881E090E01A
:1006300080939838909399381092B2381092B338CA
:100640001092B4381092B5388091983890919938BA
:10065000809383389093843888ED98E084BF90939A
:1006600000017894F89480912E3890912F38A091C1
:100670003038B0913138789418A619A61AA61BA65E
:100680001CA6E2E02E2E312CA895F894C0902E38AE
:10069000D0902F38E0903038F0903138789456016F
:1006A000A81AB90A4AEA542E4424439423C081E08C
:1006B0001ACF10928538109286381092873839CF29
:1006C000182FB02ECC24C394D12C4CCF182FB02E81
:1006D00049CF81E08093B7388093BA381092983828
:1006E00010929938A9CF8CA5811153C14AEA74128E
:1006F00001C04CA6909173388091723898139FC4B2
:1007000080918238882309F456C040907E385090FA
:100710007F38609080387090813810928238809154
:10072000A6389091A738A091A838B091A938A30114
:100730009201281B390B4A0B5B0BDA01C901449764
:10074000A105B105C0F14092A6385092A738609239
:10075000A8387092A9388091B738882329F0809101
:10076000B8388F5F8093B8388091983890919938D5
:10077000029709F580919F3860919A380E94610A2A
:100780009F5F90939F381092B6380E94520081115B
:1007900012C081E090E0809398389093993840920D
:1007A000B2385092B3386092B4387092B538109223
:1007B000BA381092BB3880917D38882309F44EC036
:1007C00080919838909199380091793810917A38C1
:1007D00020917B3830917C3810927D384091AA3836
:1007E0005091AB386091AC387091AD383801490107
:1007F000641A750A860A970AB401A30144315105A7
:100800006105710558F10093AA381093AB38209315
:10081000AC383093AD38892B09F58091B938811106
:100820003AC441E04093B93880919B3860919A383E
:100830000E94610A9F5F90939F384093A138109265
:10084000B8388091B738882309F43EC40093B23891
:100850001093B3382093B4383093B53880919838DA
:1008600090919938009709F442C4029709F484C41E
:10087000A114B10491F18091853890918638019747
:1008800061F520918C3830918D38A50170E060E0E1
:10089000420F531F611D711D80918A3890918B38D2
:1008A000B0E0A0E0481759076A077B0708F410C5B5
:1008B000809189389FEF980F9A3F08F002C5809386
:1008C00087381092883842E050E040938538509342
:1008D000863810928C3810928D3880917838882321
:1008E000A9F01092783880918538909186380297D7
:1008F00069F4109287381092883810928E3886E00A
:1009000080938F3810928538109286389091BA383B
:1009100080919D38981709F4E2C480E8809305041B
:1009200080918E38882309F4DEC484E08093050426
:100930002601370157E0452255246624772400918B
:100940009838109199388091743890917538A091A9
:100950007638B09177388C199D09AE09BF09181601
:1009600019061A061B060CF0C2C4C701B6012DE712
:1009700030E040E050E00E94810A20FF08C081E0A2
:1009800094E0491651046104710408F4C6C480E07F
:10099000C4C455E5751207C059827A8228A639A6C3
:1009A0001AA61BA6A7CE8AEA781609F4A3CE1CA61F
:1009B000A1CE90E003968AA79BA79CCE2AA53BA533
:1009C0002115310509F496CE8217930709F092CECE
:1009D0006B80B80163507109CE0103960E946700D5
:1009E000FE01E00FF11F2081372D18A619A61AA6C7
:1009F0001BA61CA68217930709F07CCE4CEF460D70
:100A00000C810DA71D811EA760964FAF609750E027
:100A1000BE016A5F7F4FCE018F960E94580A609692
:100A20002FAD6097E0E9F5E990E080E030810313B5
:100A30003BC073E0880F991F7A95E1F7FC01E057FE
:100A4000FA464381548141305105C9F1A0F1423049
:100A50005105C1F180579A46FC018581968197FD29
:100A600004C02817190609F045CE213208F042CEFD
:100A7000909108049270013541F1023509F4A7C044
:100A8000003509F04BC081E090E080938538909369
:100A90008638109287381092883810928E381092CB
:100AA0008C3810928D383AC0019638968331910572
:100AB00009F0BCCF1FCE11501A3F60F21BCE11239C
:100AC00049F218CE1B3F30F215CE213039F58FA5F3
:100AD0003FEF380F3A3F10F54091853850918638F6
:100AE00041305105D9F49923C9F090918E38911174
:100AF00015C0809387381092883880938938209366
:100B0000903820938E382093913862E0662E712CB5
:100B1000609285387092863810928F388091913823
:100B2000882329F06091873881E50E942D0180910A
:100B30009038882331F06091873884E090E00E94FB
:100B4000390A10929038109291388091853890919E
:100B50008638109187388230910509F010E04EA553
:100B6000442349F0029721F481E09091873894134F
:100B700080E080FF97CD8DA5803309F4BCC108F0DB
:100B80006EC0833009F4B1C008F041C0813009F46F
:100B90009BC0823009F086CD112309F483CD609685
:100BA0008FAD6097811708F47DCDEEE2F0E0EC0F99
:100BB000FD1FE10FF11D8081882309F473CD909111
:100BC0009A38981708F46ECD8093A0386BCD809139
:100BD000853890918638019709F0A0CF80918938A7
:100BE0009FEF980F9A3F60F480938738109288386F
:100BF00052E0852E912C80928538909286384FCF86
:100C00008AEF8093873881E080938838F1CF8031F4
:100C100009F4F6C0803209F42EC1843009F042CDC7
:100C200080919838909199388D7F1092BA38892B9D
:100C300081F481E090E08093983890939938C09245
:100C4000B238D092B338E092B438F092B5381092FE
:100C5000BB38442309F426CD612F84E043C083359B
:100C600009F4BDC1F0F4813309F49EC1803409F068
:100C700019CD2FA530E0A8EEB3E00E94A30A6C0DB9
:100C80007D1D8E1D9F1D6093743870937538809301
:100C9000763890937738612F80E4442309F402CDAD
:100CA00021C0853509F4C3C108F4A9C1803F09F00A
:100CB000F9CC81E061968FAF619721E0AE01405B96
:100CC0005F4F612F80EFD2C08FA5882331F09091C4
:100CD0009A38981710F08093A038612F81E0442350
:100CE00009F4E0CC0E942D01DDCC809198389091E0
:100CF00099388330910509F050C01092A238809144
:100D0000A138882399F081E090E0809398389093FF
:100D10009938C092B238D092B338E092B438F09299
:100D2000B5381092BA381092BB38BCCC1092B93892
:100D300081E09091A338911180E08093B7381092B0
:100D4000B8381092B63881E08093BA381092BB3828
:100D5000C092AA38D092AB38E092AC38F092AD385D
:100D6000C092A638D092A738E092A838F092A9385D
:100D7000C092AE38D092AF38E092B038F092B1382D
:100D80001092983810929938C092B238D092B338F5
:100D9000E092B438F092B53885CC019709F082CC56
:100DA0008091A138811104C084E08093A2387ACC6C
:100DB0008091A038882309F475CC0E9452008823C2
:100DC00009F470CC1092B6381092BB3881E0809351
:100DD000BA38C092AE38D092AF38E092B038F092C4
:100DE000B138C092A638D092A738E092A838F092D5
:100DF000A93822E030E02093983830939938C4CF56
:100E000080919F3861968FAF61978091A0386296EC
:100E10008FAF62978091983890919938843091057E
:100E200040F5885D9946FC01808163968FAF63979A
:100E30008091A23864968FAF64978091A3386596AD
:100E40008FAF65979091A4388091A53866969FAF33
:100E5000669767968FAF679781E068968FAF6897C0
:100E600028E0AE01405B5F4F612F80E10E94A90046
:100E700019CC83E0DACF1092A2381092A1381092E8
:100E8000B93881E09091A338911180E08093B73810
:100E90001092B8381092B63881E08093BA38109228
:100EA000BB38C092AA38D092AB38E092AC38F092FE
:100EB000AD38C092A638D092A738E092A838F09208
:100EC000A938C092AE38D092AF38E092B038F092E4
:100ED000B1381092983810929938C092B238D092A6
:100EE000B338E092B438F092B538612F80E24423F1
:100EF00009F4D8CBF7CE86E0E2E9F8E3DE01A65AA2
:100F0000BF4F01900D928A95E1F78FA56B968FAF39
:100F10006B9788A96C968FAF6C9789A96D968FAFE8
:100F20006D978AA96E968FAF6E97CE01865A9F4FA6
:100F30000E9481006B968FAD6B9761968FAF619722
:100F40006C968FAD6C9762968FAF62976D968FADF2
:100F50006D9763968FAF63976E968FAD6E9764961D
:100F60008FAF64976F968FAD6F9765968FAF6597CC
:100F7000A0968FADA09766968FAF669744E050E03D
:100F800070E060E0CE01805B9F4F0E94290A86E0FE
:100F9000FE01E65AFF4FA2E9B8E301900D928A954F
:100FA000E1F7612F80E39ECE8091923861968FAFFA
:100FB00061978091933862968FAF62978091943851
:100FC00063968FAF63978091953864968FAF6497DF
:100FD00024E0AE01405B5F4F612F81E347CFFE010C
:100FE000E05BFF4FA3E0B1E1AF018D918193AD30A4
:100FF00021E1B207D1F72AE0612F83E537CF81E005
:1010000061968FAF619762968FAF629763961FAEBE
:10101000639782E064968FAF649765961FAE65977D
:1010200025E0AE01405B5F4F612F84E51FCF87EB6A
:101030008CBB88ED91E084BF9093410033CBE0916D
:101040007338F0E0EE5CF74C7080809173388F5FFE
:101050008F738093733808A519A50115110509F43C
:1010600042CBC801019688A799A7E1E0F0E0EC0F18
:10107000FD1FE00FF11F70828330910509F09ECCB7
:101080008B819CEF980F913208F493CC18A619A687
:101090001AA61BA68CCC8091B8388093A3381092E6
:1010A000B738883289F08F7E803471F083E0809386
:1010B000A2381092BA381092BB3883E090E0809347
:1010C000983890939938C2CB1092BA3881E090E06A
:1010D00080939838909399380093B2381093B3382E
:1010E0002093B4383093B5381092BB38B7CB809189
:1010F000B2389091B338A091B438B091B538A70107
:101100009601281B390B4A0B5B0BDA01C901803AA7
:101110009F40A105B10508F4ABCB8091B938882375
:10112000A9F01092B7381092BA3881E090E080931D
:10113000983890939938C092B238D092B338E092F0
:10114000B438F092B5381092BB3892CB82E08093DD
:10115000A2381092BA381092BB3883E090E08093A6
:10116000983890939938C092B238D092B338E092C0
:10117000B438F092B5387CCB8091AE389091AF38CE
:10118000A091B038B091B13836014701681A790A98
:101190008A0A9B0AD401C301803A9F40A105B10588
:1011A00010F085E0D4CF1091BB388091A638909193
:1011B000A738A091A838B091A93836014701681A1C
:1011C000790A8A0A9B0AD401C301883C9105A105CA
:1011D000B10500F111111EC08091B638833030F096
:1011E00081E08093A2381092BA38B7CF8F5F809396
:1011F000B6388091A4389091A53801968093A43890
:101200009093A538C092A638D092A738E092A8381B
:10121000F092A9380E945200813019F5111121C0B5
:1012200090919C384CE350E0491B510970E060E01C
:101230000091A6381091A7382091A8383091A9388C
:1012400036014701601A710A820A930A94018301E8
:10125000041715072607370720F01092BA38809335
:10126000BB388091BB38882309F402CB8091A63823
:101270009091A738A091A838B091A938A7019601FC
:10128000281B390B4A0B5B0BDA01C901843B910522
:10129000A105B10508F4ECCA8091A03880939F386D
:1012A00081E090E08093983890939938C092B2385A
:1012B000D092B338E092B438F092B5381092BA3880
:1012C00042CF8AEF8093873881E080938838FBCAC9
:1012D000A20EB31EA0928C38B0928D38FECA80E860
:1012E000809306041DCB84E08093060421CB033059
:1012F000110509F066C0C701B60124EF31E040E0F6
:1013000050E00E94810A20FF42CB81E0E4E04E16CB
:1013100051046104710408F03ACB882309F47EC0BB
:1013200088E08093050480918338909184388017F9
:10133000910709F444C001301105C9F580919E3828
:101340008823A9F160909F38662089F190E1A92E49
:10135000B12C712C512C10E000E0412CC5010E94F1
:10136000210A8F3F41F00115110509F45BC0982F48
:10137000951997FF5CC0439432E0A30EB11C40E185
:101380004412ECCF012B09F455C001E0070D0F709A
:1013900061E0650D10E0085F1F4F000F111FC801CD
:1013A0000E94390A662DC80101960E94390A80916F
:1013B0009838909199388093833890938438C601F7
:1013C00063C930ED832E37E0932EA12CB12CC701D9
:1013D000B601A50194010E94810A683EF3E07F07EF
:1013E0008105910540F0A5019401261B370B480BA0
:1013F000590BCA01B90122E0660F771F881F991F98
:101400002A95D1F728EE33E040E050E00E94810AAF
:10141000421653066406750608F482CF88E080936E
:10142000060481CF742C582E01E010E0A4CF742C58
:10143000582EA1CF00E061E0ADCF60507C4E0C94FF
:10144000580A03D0808199270895FC01E050FC4E92
:101450000895DC01A40FB51F4150504048F0CB0166
:10146000840F951F2E910E943A0A41505040D0F7A8
:101470000895262F0E94250A0080021619F00E9466
:10148000450A019701970895262FAF93BF93E0E097
:10149000F0E1328131FDFDCFDC01A050BC4E2C9338
:1014A0002DE924BF23E020830196BF91AF910895D9
:1014B000FB01DC0102C001900D9241505040D8F771
:1014C0000895991B79E004C0991F961708F0961BA0
:1014D000881F7A95C9F78095089597FB072E16F413
:1014E000009407D077FD09D00E94B20A07FC05D00E
:1014F0003EF4909581959F4F0895709561957F4F2B
:101500000895A1E21A2EAA1BBB1BFD010DC0AA1F44
:10151000BB1FEE1FFF1FA217B307E407F50720F05C
:10152000A21BB30BE40BF50B661F771F881F991FD7
:101530001A9469F760957095809590959B01AC0120
:10154000BD01CF010895A29FB001B39FC001A39F29
:10155000700D811D1124911DB29F700D811D1124EC
:10156000911D0895AA1BBB1B51E107C0AA1FBB1FF9
:10157000A617B70710F0A61BB70B881F991F5A951F
:10158000A9F780959095BC01CD010895F894FFCFFF
:101590000172960000010001022C960100FFFF007D
:1015A0000334960100000000043796020000000199
:1015B000103C960000000001204796020000000148
:1015C000304C9600000400013157960000000001E5
:1015D0004062960000010001506B9601000000007F
:1015E0005176960100010001528296010000000030
:1015F000538C9600000000015494960000000001F6
:1016000055A096020000000056B1960000040001AB
:1016100057BA960000FFFF0158C296000000000173
:10162000F0C9960000000001010002035345545F19
:10163000414C4C00474F0053544F50004745545FB6
:1016400053544154555300484F4D45005345545F42
:10165000434F4E464947004745545F434F4E464926
:1016600047004944454E5449465900454E554D5F43
:10167000524553455400454E554D5F4153534947DC
:101680004E00454E554D5F444F4E45004745545F13
:10169000554944004745545F56455253494F4E0003
:1016A000454E5445525F424F4F544C4F4144455272
:1016B0000046575F424547494E0046575F444154F4
:0E16C000410046575F454E440050494E4700DA
:00000001FF
