:100000000C943E000C9448000C9448000C9448005A
:100010000C9448000C9448000C9448000C94480040
:100020000C9448000C9448000C9448000C94480030
:100030000C9448000C9448000C9448000C94480020
:100040000C9448000C9448000C9448000C94480010
:100050000C9448000C9448000C9448000C94480000
:100060000C9448000C9448000C9448000C944800F0
:100070000C9448000C9448000C94480011241FBEB6
:10008000CFEFCDBFDFE3DEBF0E9472010C945805B5
:100090000C940000FC01680F791F8FEF9FEFE617AB
:1000A000F70709F408952191822728E0AC014170F7
:1000B000552796958795452B21F031E0832730EA27
:1000C0009327215099F7EBCF54576F4F7F4F809173
:1000D0000210837079F58DE994E084BF909300104D
:1000E0008091021080FD28C0D90180E0E82FE695BC
:1000F000F0E0EE0FFF1FE40FF51F11962C91119702
:100100009C91322F292F208331838E5F1296803469
:1001100069F78DE993E084BF9093001080910210FD
:1001200080FD0CC08091021082FB882780F991E04D
:1001300089270895A895CBCFA895D2CFA895EECFC3
:10014000AF92BF92CF92DF92EF92FF921F93CF9325
:10015000DF936C0124E5C20ED11CF6012081211130
:100160000CC011E0812FDF91CF911F91FF90EF9094
:10017000DF90CF90BF90AF900895EC015C01F0E16B
:10018000AF0EB11C7C0120E5E20EF11CF7014081AD
:10019000518162817381E881F98195018A819B8116
:1001A0000995182F40E450E06FEF70E0C5010E9400
:1001B0005105F70180819181A281B381805C9F4FBD
:1001C000AF4FBF4F80839183A283B383F601108228
:1001D0001111C7CFCA5ADF4F83E08883C3CF88E0AD
:1001E00090E00C942905EF92FF921F93CF93DF9339
:1001F000CDB7DEB7CA54D109CDBFDEBFFC01EA5985
:10020000FF4F308138A73597208129A73696108176
:100210002B961FAF2B973196DE019A9680E0BD0199
:10022000181358C0E12EF12C8AEA898385E58A8368
:1002300084E0810F8B833C832D83A701CE0106963A
:100240000E944805B7016D5F7F4FCE0103960E9463
:100250004A00E6E0F0E0EC0FFD1FEE0DFF1D80838D
:10026000FE01EE0DFF1D9783195F87EE93E0019766
:10027000F1F700C00000CE010196FC0120910408B6
:1002800025FF2CC02191209302082E2F281B211717
:10029000A8F38091040886FF23C080E480930408BB
:1002A00087EE93E00197F1F700C0000080EA9FE03D
:1002B000A8952091040827FD209100080197C1F717
:1002C000C65BDF4FCDBFDEBFDF91CF911F91FF90A7
:1002D000EF90089591919D938F5FA2CFA895CECF77
:1002E000A895D7CFCF93DF93CDB7DEB7C65CD10942
:1002F000CDBFDEBFF8940CB31CBA88ED90E084BF8C
:100300009093610098E084BF9093000180E880930F
:10031000060485E08093210486EB92E08093080830
:100320009093090881E08093050893E09093070873
:1003300090EC909306082FE13EE420934C0A309312
:100340004D0A1092410A8093400A88E090E00E9492
:1003500021052091008C3091018C10E02F3F3F4F00
:1003600039F011E0853A19F08F3F09F010E0117073
:1003700084E090E00E942105DE011196C354DF4F16
:10038000A883B983CD5BD0409DE61D929A95E9F78D
:1003900024E630E06A962EAF3FAF6A972FEE30E04A
:1003A0006C962EAF3FAF6C9740E054E360E070E096
:1003B000A2964CAF5DAF6EAF7FAFA2979FEF980F45
:1003C0009A3F08F08AEFA3968FAFA39782E0A49696
:1003D0008FAFA497A5961FAFA597112319F081E0C1
:1003E000073B09F480E0FE01EB59FF4FC154DF4F9A
:1003F000E883F983CF5BD0408170A6968FAFA69734
:100400003E01FEE66F0E711CD30197961D921C9261
:10041000989799961D921C929A979B961C9283018D
:10042000F3013296CD53DF4FE883F983C35CD040AC
:100430009301225D3F4FCB53DF4F28833983C55C47
:10044000D040A6968FADA69754ECE52E59E0F52E38
:10045000811104C048EBE42E4BE0F42E3324339496
:1004600032E0A32EB12C430135E0830E911C2AEA21
:10047000222EA8958091460A80FF0AC03092460A33
:1004800041E0E416F10409F4BBC251E0E51AF108B9
:100490008091040887FFEDCF50900008D80197960F
:1004A0006D917C9198976115710509F59B968C91DA
:1004B0009B97811106C0BAEA5B12DBCFF80133A625
:1004C000D8CFF5E55F120DC02C9211965C92119772
:1004D0009796AD92BC92989799961D921C929A9776
:1004E000C8CFBAEA5B1629F2F80113A6C2CFCB0136
:1004F000019697968D939C9398976801C60ED71E88
:10050000F601508283309105C9F412968C911297AE
:100510009CEF980F913258F097961D921C929897E5
:1005200099961D921C929A979B961C92A2CF90E04E
:10053000039699968D939C939A979BCFF80121A54A
:1005400032A52115310509F494CF8217930709F0DC
:1005500090CF428063507109CD53DF4F88819981DC
:10056000C35CD0400E944A00F60131972081352DAE
:10057000D80197961D921C92989799961D921C925D
:100580009A979B961C928217930709F072CF4CEFB3
:10059000440DF301D380D4A6C480C5A6C454DF4F54
:1005A0004883CC5BD04050E0B401CB53DF4F88810F
:1005B0009981C55CD0400E944805A3968FADA39752
:1005C000C81255CFC454DF4F8881CC5BD040F6E5CC
:1005D000DF1203C091E0843009F090E09170A6969C
:1005E0002FADA697222309F44EC0992309F411C216
:1005F000A6961FAEA69726E5D21609F45FC02D1564
:1006000048F034E5D316B1F045E5D41230CF81116E
:100610002ECF17CF57E5D51609F4B4C098E5D912F7
:1006200026CF811124CFA7968FADA797811193C1B3
:1006300088E562C081111BCF84E5A8968FAFA8978B
:1006400081E0AA968FAFAA978FEFAB968FAFAB974B
:10065000AC968FAFAC97A5968FADA597882349F13F
:1006600083E0AD968FAFAD97A4968FADA497AE966D
:100670008FAFAE9785E0A9968FAFA997CE0101966F
:100680000E94F300DECEA6E5DA16A9F0AD1540F023
:10069000B4E5DB1679F2E5E5DE1609F4B8CFE7CE6E
:1006A000F7E5DF1609F46EC028E5D21609F4B9CFD4
:1006B000DECE81E0D6CF992309F4D9CED3019E9620
:1006C0008D909C909F97B12CA12CD096ED90FC9092
:1006D000A7961FAEA79781149104A104B10459F005
:1006E000A2968CAD9DADAEADBFADA2978815990514
:1006F000AA05BB0548F486E5A8968FAFA897AA96E9
:100700001FAEAA9781E0B7CF6C96EEADFFAD6C97A8
:1007100060E06E968EAD9FAD6E970995A5961FAE63
:10072000A5976E968EAD9FAD6E976A962EAD3FAD36
:100730006A97FE013B964DE4DF011D924A95E9F769
:1007400029833A838B839C838D829E82AF82B88675
:10075000E986FA868FEF9FEF8F87988B40E450E011
:100760006FEF70E0CE0141960E94510581E0A7969F
:100770008FAFA79796E5A8969FAFA897AA968FAF39
:10078000AA9779CF9DEF980F9E3108F070CEF301B4
:1007900006A4F7A5E02DCF53DF4FE883F983C15CB2
:1007A000D0404F01B12CA12CA7969FADA7979923BC
:1007B00009F4B8C09EEFF92EF80E68968FAD6897D1
:1007C0008111B0C067968FAD67972B843C844D84B0
:1007D0005E84882371F0F8120CC0D501CF018F0D13
:1007E000911DA11DB11D82159305A405B50509F440
:1007F000A9C082149304A404B50409F093C08D81A8
:100800009E81AF81B88588159905AA05BB0508F4B6
:1008100089C04F2D50E070E060E088199909AA095D
:10082000BB0984179507A607B70708F47BC0CF2C30
:10083000D12C8F859889F30120A98227A8E09C01FB
:100840002170332796958795232B21F021E082276D
:1008500020EA9227A15099F731969F01261937096E
:100860002C153D0548F38F87988B420D531D641D51
:10087000751D4B875C876D877E876796FFAE679790
:10088000680130E3C30ED11C1401250140EC242281
:1008900066968FAD669781112EC066968FAD66976E
:1008A000882309F441C0D6012D916D01D501C40101
:1008B0008F739927AA27BB27E1E1F0E0EC0FFD1F1A
:1008C0008E0F9F1FDC012C93882D8F738F5F669690
:1008D0008FAF6697803479F1BFEF8B1A9B0AAB0A12
:1008E000BB0A882DCF53DF4FE881C15CD0408E1BFF
:1008F0008F1550F211C065968CAD9DADAEADBFADFC
:100900006597281639064A065B0639F2CE0101962C
:100910000E94A0008111C1CF81E068969FAD6897C9
:10092000992389F080E00FC065962CAE3DAE4EAEA7
:100930005FAE6597B8CFCE0101960E94A0008111ED
:10094000CBCFEACF81E097E5A8969FAFA897AA966C
:100950008FAFAA97D7CEA7961FAEA79768968FADF1
:100960006897811146C0CE0101960E94A00088239D
:1009700009F43FC04B855C856D857E858D819E81A8
:10098000AF81B885481759076A077B07A9F52F85F6
:10099000388989859A852817390781F56C96EEADD7
:1009A000FFAD6C9765EA6E968EAD9FAD6E9709951B
:1009B000FF24F394A596FFAEA59788E5A8968FAF80
:1009C000A897AA96FFAEAA97A996FFAEA997CE01BF
:1009D00001960E94F300FFE728E331E0F150204048
:1009E0003040E1F700C0000088ED84BFF092410084
:1009F00028CD83E098E5A8CF84E0FCCF85E0FACF4E
:100A0000A6961FAEA697A5968FADA597882309F445
:100A100018CD109206081092050881E080932204F8
:100A20001092400A10924A0A10924B0A8093460A8A
:100A300088ED90E084BF90931001E0E0F6E0099526
:100A4000FFCF03D0808199270895FC01E050FC4E30
:100A50000895262F0E9425050080021619F00E9495
:100A60003505019701970895262FAF93BF93E0E0D6
:100A7000F0E1328131FDFDCFDC01A050BC4E2C9362
:100A80002DE924BF23E020830196BF91AF91089503
:100A9000FB01DC0102C001900D9241505040D8F79B
:100AA0000895DC0101C06D9341505040E0F7089576
:040AB000F894FFCFE8
:00000001FF
