:100000000C943E000C9450000C9450000C94890108
:100010000C9450000C9450000C9450000C94500020
:100020000C9450000C9450000C9450000C94500010
:100030000C9450000C94CD010C9450000C94500082
:100040000C9450000C9450000C9450000C945000F0
:100050000C9450000C9450000C9450000C945000E0
:100060000C9450000C9450000C9450000C943201ED
:100070000C9450000C9450000C94500011241FBE9E
:10008000CFEFCDBFDFE3DEBF28E3A0E0B8E301C0E0
:100090001D92AC3BB207E1F70E94F5010C94890A6E
:1000A0000C94000020919F38222379F08091A03891
:1000B000882359F060919A3870E0860F972F911D30
:1000C000821B91090E94300A089580E00895FC0186
:1000D000680F791F8FEF9FEFE617F70709F4089570
:1000E0002191822728E0AC0141705527969587958C
:1000F000452B21F031E0832730EA9327215099F7EF
:10010000EBCFFC018081883201F18F7E8034E9F0F1
:1001100088E2808380E021819081291710F011828C
:1001200080E092819D3318F08CE3828380E094819B
:100130009B3F10F0148280E09581992341F09D331C
:1001400018F08CE3858380E0089581E0E4CF81E0BE
:10015000F9CFEF92FF920F931F93CF93DF93CDB719
:10016000DEB7A397CDBFDEBF962F89836A832BA30B
:10017000142FDE011396FA01BD013E2F311B3217F9
:1001800008F468C0022F10E0780137E0E30EF11C9C
:100190003AEA3093073835E5309308382C5F2093DE
:1001A000093880930A3890930B38A8018CE098E3C3
:1001B0000E941B0AB8016D5F7F4F89E098E30E949F
:1001C0006700F801E45FF74C8083F801E35FF74CC8
:1001D000908387EE93E00197F1F700C0000087E07D
:1001E00098E38093053890930638E0920338F092B4
:1001F000043810920138109202381092783881E059
:1002000080930038E7E0F8E38091040885FFFCCF95
:10021000819180930208CF01875098438E159F05E6
:1002200098F38091040886FFFCCF80E48093040853
:1002300087EE93E00197F1F700C0000010920038BC
:10024000A396CDBFDEBFDF91CF911F910F91FF909D
:10025000EF90089531913D9390CF20E050E040E041
:100260000C94A9001F920F920FB60F9211242F9396
:100270003F934F935F938F939F93EF93FF9380915F
:1002800001089091000880910038882389F14091FD
:1002900001385091023820910338309104384217C8
:1002A0005307C8F42091013830910238E0910538A5
:1002B000F0910638E20FF31F8081891719F081E071
:1002C000809378388091013890910238019680931C
:1002D000013890930238FF91EF919F918F915F9138
:1002E0004F913F912F910F900FBE0F901F90189537
:1002F000809172388F5F8F7320917338281759F36C
:10030000E0917238F0E0EE5CF74C908380937238A5
:10031000E2CF1F920F920FB60F9211244F935F936B
:100320006F937F938F939F938091090484FF13C0F1
:1003300040912E3850912F3860913038709131387B
:1003400040937E3850937F38609380387093813823
:1003500091E09093823885FF13C040912E385091E0
:100360002F386091303870913138409379385093FC
:100370007A3860937B3870937C3891E090937D3825
:10038000809309049F918F917F916F915F914F911D
:100390000F900FBE0F901F9018951F920F920FB6DF
:1003A0000F9211248F939F93AF93BF9381E080931B
:1003B000460A80912E3890912F38A0913038B09114
:1003C00031380196A11DB11D80932E3890932F389E
:1003D000A0933038B0933138BF91AF919F918F91F6
:1003E0000F900FBE0F901F901895CF93DF93CDB74E
:1003F000DEB7CF55D109CDBFDEBF88ED90E084BF19
:10040000909361008CE88093010492E7909302043A
:100410008093060483E0809314048093150495E090
:10042000909321042FE13EE420934C0A30934D0A2F
:1004300091E09093450A1092410A9093400A26EB6E
:1004400032E0209308083093090891E8909305085A
:100450008093070880EC8093060846E050E070E047
:1004600060E0CE0101960E94E00989818093923874
:100470008A81809393388B81809394388C81809388
:1004800095388D81809396388E818093973882E954
:1004900098E30E94810081111AC08091923889836B
:1004A000809193388A83809194388B83809195389A
:1004B0008C83809196388D83809197388E8346E027
:1004C00050E070E060E0CE0101960E94EC0980915E
:1004D00097389091963890938938882309F4EAC028
:1004E0008D3308F08CE348EE53E0849F9001859FA4
:1004F000300D112420938A3830938B3810928C3829
:1005000010928D3810928E3810928F381092903849
:1005100010929138109288388FEF890F8A3F08F037
:10052000CBC022E030E0209385383093863890931A
:10053000873870E1E72EF12C10E0B12CD12CC12CC2
:10054000C7010E94E409082FC70101960E94E4092F
:100550000F3F41F0C114D10409F4B5C0902F9B198D
:1005600097FFB7C022E0E20EF11C30E3E316F1047E
:1005700039F7CD2809F410E02091923820939A3869
:100580008091933880939B388091943880939C38E5
:100590009091953892FB882780F980939D38892F18
:1005A000817080939E3810929F381092A0381092DC
:1005B000A1381092A2381092A3381092A438109249
:1005C000A5381092B6381092B7381092B8381092F9
:1005D000B9381092BA381092BB381092A6381092DF
:1005E000A7381092A8381092A9381092AA38109201
:1005F000AB381092AC381092AD381092AE381092E1
:10060000AF381092B0381092B138882329F01123F6
:1006100019F081E0211708F480E080FF5DC091FDB2
:100620005BC010939F3881E08093A13881E090E017
:1006300080939838909399381092B2381092B338CA
:100640001092B4381092B5388091983890919938BA
:10065000809383389093843888ED98E084BF90939A
:1006600000017894F89480912E3890912F38A091C1
:100670003038B0913138789418A619A61AA61BA65E
:100680001CA642E0842E912C52E0652E712CA89578
:10069000F894C0902E38D0902F38E0903038F090F9
:1006A000313878945601A81AB90A2AEA222E33243E
:1006B000339423C081E017CF10928538109286388A
:1006C0001092873836CF182FB02ECC24C394D12C5B
:1006D00049CF182FB02E46CF81E08093B738809352
:1006E000BA381092983810929938A6CF8CA58111FB
:1006F000A7C14AEA541201C03CA690917338809178
:1007000072389813EBC480918238882309F456C05C
:1007100020907E3830907F384090803850908138DB
:10072000109282388091A6389091A738A091A8386D
:10073000B091A938A2019101281B390B4A0B5B0B20
:10074000DA01C9014497A105B105C0F12092A6388C
:100750003092A7384092A8385092A9388091B73883
:10076000882329F08091B8388F5F8093B8388091C2
:10077000983890919938029709F580919F38609147
:100780009A380E94240A9F5F90939F381092B6383F
:100790000E945200811112C081E090E0809398384D
:1007A000909399382092B2383092B3384092B4384E
:1007B0005092B5381092BA381092BB3880917D387B
:1007C000882309F44EC0809198389091993800910F
:1007D000793810917A3820917B3830917C3810929A
:1007E0007D384091AA385091AB386091AC38709107
:1007F000AD3818012901241A350A460A570AB201F0
:10080000A101443151056105710558F10093AA38E1
:100810001093AB382093AC383093AD38892B09F561
:100820008091B938811186C441E04093B9388091F4
:100830009B3860919A380E94240A9F5F90939F385A
:100840004093A1381092B8388091B738882309F4C2
:100850008AC40093B2381093B3382093B4383093DD
:10086000B5388091983890919938009709F48EC4E2
:10087000029709F4D0C4A114B10491F18091853894
:1008800090918638019761F520918C3830918D38A0
:10089000A50170E060E0420F531F611D711D809142
:1008A0008A3890918B38B0E0A0E0481759076A0762
:1008B0007B0708F45CC5809189389FEF980F9A3FB9
:1008C00008F04EC5809387381092883842E050E097
:1008D000409385385093863810928C3810928D381A
:1008E000809178388823A9F01092783880918538E3
:1008F00090918638029769F4109287381092883860
:1009000010928E3886E080938F381092853810923E
:1009100086389091BA3880919D38981709F42EC581
:1009200080E88093050480918E38882309F42AC5D5
:1009300084E0809305040091983810919938809153
:10094000743890917538A0917638B09177388C19B9
:100950009D09AE09BF09181619061A061B060CF0E8
:1009600015C5C701B6012DE730E040E050E00E9418
:10097000440A217009F415C5C701B60124E130E02D
:1009800040E050E00E94440A21E030E0672B682BF1
:10099000692B11F030E020E0232B09F402C588E038
:1009A0008093050480918338909184388017910753
:1009B00009F444C001301105C9F580919E3888239F
:1009C000A9F140909F38442089F190E1A92EB12CE3
:1009D000512C312C10E000E0212CC5010E94E409CB
:1009E0008F3F41F00115110509F4DFC4982F9319C9
:1009F00097FFE0C4239452E0A50EB11C80E12812B9
:100A0000ECCF012B09F4D9C401E0050D0F7061E0B2
:100A1000630D10E0085F1F4F000F111FC8010E94F7
:100A2000FC09642DC80101960E94FC098091983848
:100A3000909199388093833890938438C60127CE5B
:100A400055E5551207C029825A8268A679A61AA6CA
:100A50001BA653CE8AEA581609F44FCE1CA64DCEDB
:100A600090E003968AA79BA748CE2AA53BA521150F
:100A7000310509F442CE8217930709F03ECE4B8030
:100A8000B80163507109CE0103960E946700FE0110
:100A9000E00FF11F2081352D18A619A61AA61BA656
:100AA0001CA68217930709F028CE4CEF440D0C8149
:100AB0000DA71D811EA760964FAF609750E0BE0145
:100AC0006A5F7F4FCE018F960E941B0A60962FAD02
:100AD0006097E6E1F5E990E080E0308103133BC0E8
:100AE00033E0880F991F3A95E1F7FC01EA5EFA4678
:100AF0004381548141305105C9F1A0F14230510583
:100B0000C1F18A5E9A46FC018581968197FD04C0F9
:100B10002817190609F0F1CD213208F0EECD909199
:100B200008049270013541F1023509F4A3C0003583
:100B300009F048C081E090E0809385389093863832
:100B4000109287381092883810928E3810928C3814
:100B500010928D3837C0019638968331910509F08F
:100B6000BCCFCBCD11501A3F60F2C7CD112349F253
:100B7000C4CD1B3F30F2C1CD213021F58FA53FEF11
:100B8000380F3A3FF8F4409185385091863841301B
:100B90005105C1F49923B1F090918E38911112C092
:100BA00080938738109288388093893820939038C2
:100BB00020938E3820939138809285389092863891
:100BC00010928F3880919138882329F0609187386E
:100BD00081E50E942D0180919038882331F0609149
:100BE000873884E090E00E94FC09109290381092BF
:100BF000913880918538909186381091873882306D
:100C0000910509F010E04EA5442349F0029721F424
:100C100081E090918738941380E080FF46CD8DA5C8
:100C2000803309F4B6C108F06AC0833009F4ADC05E
:100C3000F0F5813009F498C0823009F036CD1123E7
:100C400009F433CD60968FAD6097811708F42DCDF0
:100C5000EEE2F0E0EC0FFD1FE10FF11D8081882333
:100C600009F423CD90919A38981708F41ECD8093FB
:100C7000A0381BCD8091853890918638019709F076
:100C8000A1CF809189389FEF980F9A3F48F48093C5
:100C9000873810928838809285389092863856CF5F
:100CA0008AEF8093873881E080938838F4CF803151
:100CB00009F4F4C0803209F42CC1843009F0F5CC79
:100CC00080919838909199388D7F1092BA38892BFD
:100CD00081F481E090E08093983890939938C092A5
:100CE000B238D092B338E092B438F092B53810925E
:100CF000BB38442309F4D9CC612F84E043C0833549
:100D000009F4BBC1F0F4813309F49CC1803409F0CB
:100D1000CCCC2FA530E0A8EEB3E00E94660A6C0DA3
:100D20007D1D8E1D9F1D6093743870937538809360
:100D3000763890937738612F80E4442309F4B5CC5A
:100D400021C0853509F4C2C108F4A7C1803F09F06C
:100D5000ACCC81E061968FAF619721E0AE01405B42
:100D60005F4F612F80EFD0C08FA5882331F0909125
:100D70009A38981710F08093A038612F81E04423AF
:100D800009F493CC0E942D0190CC809198389091D9
:100D900099388330910509F050C01092A2388091A3
:100DA000A138882399F081E090E08093983890935F
:100DB0009938C092B238D092B338E092B438F092F9
:100DC000B5381092BA381092BB386FCC1092B9383F
:100DD00081E09091A338911180E08093B738109210
:100DE000B8381092B63881E08093BA381092BB3888
:100DF000C092AA38D092AB38E092AC38F092AD38BD
:100E0000C092A638D092A738E092A838F092A938BC
:100E1000C092AE38D092AF38E092B038F092B1388C
:100E20001092983810929938C092B238D092B33854
:100E3000E092B438F092B53838CC019709F035CC4F
:100E40008091A138811104C084E08093A2382DCC18
:100E50008091A038882309F428CC0E94520088236E
:100E600009F423CC1092B6381092BB3881E08093FD
:100E7000BA38C092AE38D092AF38E092B038F09223
:100E8000B138C092A638D092A738E092A838F09234
:100E9000A9388092983890929938C6CF80919F381F
:100EA00061968FAF61978091A03862968FAF6297FD
:100EB00080919838909199388430910540F5825509
:100EC0009A46FC01808163968FAF63978091A23828
:100ED00064968FAF64978091A33865968FAF6597BE
:100EE0009091A4388091A53866969FAF66976796D3
:100EF0008FAF679781E068968FAF689728E0AE0163
:100F0000405B5F4F612F80E10E94A900CECB83E060
:100F1000DACF1092A2381092A1381092B93881E03D
:100F20009091A338911180E08093B7381092B8382F
:100F30001092B63881E08093BA381092BB38C092D4
:100F4000AA38D092AB38E092AC38F092AD38C0926B
:100F5000A638D092A738E092A838F092A938C0926B
:100F6000AE38D092AF38E092B038F092B1381092EB
:100F7000983810929938C092B238D092B338E09233
:100F8000B438F092B538612F80E2442309F48DCB58
:100F9000F9CE86E0E2E9F8E3DE01A65ABF4F019000
:100FA0000D928A95E1F78FA56B968FAF6B9788A905
:100FB0006C968FAF6C9789A96D968FAF6D978AA944
:100FC0006E968FAF6E97CE01865A9F4F0E9481001A
:100FD0006B968FAD6B9761968FAF61976C968FAD67
:100FE0006C9762968FAF62976D968FAD6D97639693
:100FF0008FAF63976E968FAD6E9764968FAF649741
:101000006F968FAD6F9765968FAF6597A0968FADF2
:10101000A09766968FAF669744E050E070E060E07E
:10102000CE01805B9F4F0E94EC0986E0FE01E65AEC
:10103000FF4FA2E9B8E301900D928A95E1F7612F85
:1010400080E3A0CE8091923861968FAF61978091B6
:10105000933862968FAF62978091943863968FAF82
:1010600063978091953864968FAF649724E0AE01C2
:10107000405B5F4F612F81E347CFFE01E05BFF4F95
:10108000A3E0B1E1AF018D918193AD3021E1B207D1
:10109000D1F72AE0612F83E537CF81E061968FAFEA
:1010A000619762968FAF62978BE063968FAF63977D
:1010B00082E064968FAF649765961FAE659725E0D2
:1010C000AE01405B5F4F612F84E51ECF87EB8CBB89
:1010D00088ED91E084BF90934100E7CAE0917338B6
:1010E000F0E0EE5CF74C5080809173388F5F8F7327
:1010F0008093733808A519A50115110509F4F6CADE
:10110000C801019688A799A7E1E0F0E0EC0FFD1F68
:10111000E00FF11F50828330910509F0A6CC8B813E
:101120009CEF980F913208F49BCC18A619A61AA62A
:101130001BA694CC8091B8388093A3381092B7380E
:10114000883289F08F7E803471F083E08093A238FA
:101150001092BA381092BB3883E090E080939838B0
:101160009093993876CB1092BA3881E090E08093D2
:101170009838909399380093B2381093B3382093ED
:10118000B4383093B5381092BB386BCB8091B238FD
:101190009091B338A091B438B091B538A7019601B9
:1011A000281B390B4A0B5B0BDA01C901803A9F40BF
:1011B000A105B10508F45FCB8091B9388823A9F067
:1011C0001092B7381092BA3881E090E08093983846
:1011D00090939938C092B238D092B338E092B43834
:1011E000F092B5381092BB3846CB82E08093A2389B
:1011F0001092BA381092BB3883E090E08093983810
:1012000090939938C092B238D092B338E092B43803
:10121000F092B53830CB8091AE389091AF38A09134
:10122000B038B091B13816012701281A390A4A0A94
:101230005B0AD201C101803A9F40A105B10510F0BF
:1012400085E0D4CF1091BB388091A6389091A73813
:10125000A091A838B091A93816012701281A390A97
:101260004A0A5B0AD201C101883C9105A105B1057A
:1012700000F111111EC08091B638833030F081E04A
:101280008093A2381092BA38B7CF8F5F8093B63868
:101290008091A4389091A53801968093A4389093BA
:1012A000A538C092A638D092A738E092A838F0921C
:1012B000A9380E945200813019F5111121C0909176
:1012C0009C384CE350E0491B510970E060E000910C
:1012D000A6381091A7382091A8383091A938160166
:1012E0002701201A310A420A530A92018101041788
:1012F00015072607370720F01092BA388093BB38BD
:101300008091BB38882309F4B6CA8091A6389091A1
:10131000A738A091A838B091A938A7019601281B39
:10132000390B4A0B5B0BDA01C901843B9105A1051E
:10133000B10508F4A0CA8091A03880939F3881E05D
:1013400090E08093983890939938C092B238D092B8
:10135000B338E092B438F092B5381092BA3842CF30
:101360008AEF8093873881E080938838AFCAA20ED5
:10137000B31EA0928C38B0928D38B2CA80E88093A8
:101380000604D1CA84E080930604D5CA033011054F
:1013900009F0F2CAC701B60124EF31E040E050E0A5
:1013A000E6CA88E080930604FDCA522C382E01E07C
:1013B00010E020CB522C382E1DCB00E061E029CB71
:1013C00060507C4E0C941B0A03D0808199270895AD
:1013D000FC01E050FC4E0895DC01A40FB51F415004
:1013E000504048F0CB01840F951F2E910E94FD09BB
:1013F00041505040D0F70895262F0E94E809008000
:10140000021619F00E94080A019701970895262FE5
:10141000AF93BF93E0E0F0E1328131FDFDCFDC011D
:10142000A050BC4E2C932DE924BF23E020830196CD
:10143000BF91AF910895FB01DC0102C001900D92B4
:1014400041505040D8F70895991B79E004C0991F86
:10145000961708F0961B881F7A95C9F7809508950E
:1014600097FB072E16F4009407D077FD09D00E9451
:10147000750A07FC05D03EF4909581959F4F08951D
:10148000709561957F4F0895A1E21A2EAA1BBB1B90
:10149000FD010DC0AA1FBB1FEE1FFF1FA217B30740
:1014A000E407F50720F0A21BB30BE40BF50B661F56
:1014B000771F881F991F1A9469F76095709580951A
:1014C00090959B01AC01BD01CF010895A29FB00191
:1014D000B39FC001A39F700D811D1124911DB29F68
:1014E000700D811D1124911D0895AA1BBB1B51E194
:1014F00007C0AA1FBB1FA617B70710F0A61BB70B84
:10150000881F991F5A95A9F780959095BC01CD0128
:061510000895F894FFCFDE
:1015160001F895000001000102B2950100FFFF00ED
:1015260003BA95010000000004BD95020000000109
:1015360010C295000000000120CD950200000001B8
:1015460030D295000004000131DD95000000000155
:1015560040E895000001000150F1950100000000EF
:1015660051FC95010001000152089601000000009F
:101576005312960000000001541A96000000000164
:10158600552696020000000056379600000400011A
:101596005740960000FFFF015848960000000001E2
:1015A600F04F960000000001010002035345545F0E
:1015B600414C4C00474F0053544F50004745545F31
:1015C60053544154555300484F4D45005345545FBD
:1015D600434F4E464947004745545F434F4E4649A1
:1015E60047004944454E5449465900454E554D5FBE
:1015F600524553455400454E554D5F415353494757
:101606004E00454E554D5F444F4E45004745545F8D
:10161600554944004745545F56455253494F4E007D
:10162600454E5445525F424F4F544C4F41444552EC
:101636000046575F424547494E0046575F4441546E
:0E164600410046575F454E440050494E470054
:00000001FF
