:100C00000C943E060C9450060C9450060C94620909
:100C10000C9450060C9450060C9450060C945006FC
:100C20000C9450060C9450060C9450060C945006EC
:100C30000C9450060C94A6090C9450060C94500683
:100C40000C9450060C9450060C9450060C945006CC
:100C50000C9450060C9450060C9450060C945006BC
:100C60000C9450060C9450060C9450060C940709F2
:100C70000C9450060C9450060C94500611241FBE80
:100C8000CFEFCDBFDFE3DEBF28E3A0E0B8E301C0D4
:100C90001D92A03FB207E1F70E94CE090C944113C8
:100CA0000C940006FF920F931F93CF93DF93F82EBF
:100CB0008091ED3810E000E08F3F89F090E00196E0
:100CC0006091EC3870E00E94DF12082F8091EE38BE
:100CD00090E001966FEF70E00E94DF12182FC02F96
:100CE000D0E0CC0FDD1F8091EA389091EB38C80F2F
:100CF000D91FBE016F5F7F4FE091E638F091E73872
:100D00004F2D8091E8389091E9380995E091E638C7
:100D1000F091E738412FBE018091E8389091E93891
:100D200009950093ED381093EE38F092EF38DF918B
:100D3000CF911F910F91FF9008958091ED388F3FD3
:100D400051F08091EF3881508E3F28F480E00E946E
:100D5000520681E0089580E008959FEF980F9E3F2E
:100D600010F00C949D069091ED389F3F29F09091E2
:100D7000EF389F3F09F089130C9452060895209193
:100D8000C538222379F08091C738882359F06091C3
:100D9000C13870E0860F972F911D821B91090E9428
:100DA000F312089580E00895CF92DF92EF92FF92C0
:100DB0002091C938211108C084E08093CA38FF907F
:100DC000EF90DF90CF9008952091C6382093C738D8
:100DD0002223A9F36B017C010E94BF06882379F3CB
:100DE0001092DE381092E33881E08093E238C092AE
:100DF000D638D092D738E092D838F092D938C0920D
:100E0000CE38D092CF38E092D038F092D13882E00C
:100E100090E08093BF389093C038C092DA38D09277
:100E2000DB38E092DC38F092DD38C9CFCF92DF9228
:100E3000EF92FF92CF93DF93C091BF38D091C0382B
:100E4000C090D638D090D738E090D838F090D938C4
:100E50001092E23821E030E02093BF383093C03860
:100E60006093DA387093DB388093DC389093DD3808
:100E70001092E3382091C8382223A1F01092C8388C
:100E80000E94D406229771F48091BF389091C038A7
:100E9000029741F4C092D638D092D738E092D83831
:100EA000F092D938DF91CF91FF90EF90DF90CF9003
:100EB0000895FC01680F791F8FEF9FEFE617F70782
:100EC00009F408952191822728E0AC01417055274B
:100ED00096958795452B21F031E0832730EA9327BB
:100EE000215099F7EBCFFC018381887F89F08481C1
:100EF00098E290831182128293E0938314829AE0A5
:100F000095839FEF980F9A3F08F4848380E001C097
:100F100081E09381292F2C7F19F09370938380E0D7
:100F20009081983231F09F7E903419F088E280836E
:100F300080E021819081291710F0118280E0928158
:100F40009D3310F0128280E094819B3F10F0148258
:100F500080E09581992331F09D3318F08CE38583EF
:100F600080E0089581E0FBCF8091BC3880FF0CC009
:100F70008695817091E0892780FF04C08091C938EF
:100F8000811104C00C949D0680E0F6CF8091BF389B
:100F90009091C038019729F48091C53881110C9443
:100FA000AD060895EF92FF921F93CF93DF93CDB7D5
:100FB000DEB7A397CDBFDEBF962F122F89836A833A
:100FC0002BA3342FDE011396FA01BD012E2F231B14
:100FD000211708F46FC0E12EF12C2AEA209327385C
:100FE00025E52093283824E0210F20932938809389
:100FF0002A3890932B38A7018CE298E30E9438138B
:10100000B7016D5F7F4F89E298E30E945907F701AE
:10101000E45DF74C8083F701E35DF74C9083195F43
:1010200087EE93E00197F1F700C0000087E298E3B4
:1010300080932538909326381093243810922338C3
:101040001092223881E080932138E7E2F8E380E0D3
:101050009091223891110AC09091040895FFFCCF1D
:101060009191909302088F5F811790F380932438B9
:101070009091040896FFFCCF90E49093040894E1CB
:1010800020912338281730F422E42A95F1F700C084
:101090009150B1F7109221389091223881E091114E
:1010A00080E0A396CDBFDEBFDF91CF911F91FF906F
:1010B000EF90089521912D9389CF0E94D20781113D
:1010C0001AC08091AB389091AC380297A1F410927D
:1010D000AD381092AE381092B43886E08093B638AE
:1010E0001092AB381092AC3881E08093B5381092F2
:1010F000B2381092B338089520E050E040E00C94EC
:101100005D084091203890914E3891509F3F19F4DE
:1011100090E00C94B712242F290F2F7030E09150DB
:10112000F901E05FF74C50815813F0CF2050384C54
:10113000F90180810895862F0C9481081F93CF9325
:10114000DF9380914E38882321F19091021091FD18
:1011500020C090912038292F30E0F901E05FF74C52
:10116000C0812050384CF90110819F5F9F7090938F
:101170002038815080934E38D0E0CE010E94B712C3
:10118000811739F0612FCE01DF91CF911F910C941F
:10119000BF12DF91CF911F910895CF93DF934091BC
:1011A0004E385091203890E0491317C0C62FD82FE1
:1011B00090914E38903120F520912038290F2F70D2
:1011C00030E0F901E05FF74CD0832050384CF90152
:1011D000C0839F5F90934E380EC0292F250F2F702C
:1011E00030E0F901E05FF74C7081781307C02050C0
:1011F000384CF9016083DF91CF9108959F5FD4CF80
:101200000E949E08D5CF862F642F0C94CD081F9284
:101210000F920FB60F9211242F933F934F935F932A
:101220006F937F938F939F93EF93FF938091010828
:101230009091000840919138509192386091933884
:101240007091943840939E3880912138882349F1D9
:101250002091233880912438281718F5E0912338FD
:101260002091253830912638E20FF32FF11D80812F
:10127000891719F081E080932238809123388F5F9D
:1012800080932338FF91EF919F918F917F916F9180
:101290005F914F913F912F910F900FBE0F901F9034
:1012A000189580918F388F5F8F7320919038281711
:1012B00049F3E0918F38F0E0E15BF74C9083809345
:1012C0008F38E0CF1F920F920FB60F9211244F93D9
:1012D0005F936F937F938F939F938091090484FF13
:1012E00013C0409191385091923860919338709129
:1012F00094384093A4385093A5386093A6387093DF
:10130000A73891E09093A83885FF13C04091913899
:1013100050919238609193387091943840939F38EF
:101320005093A0386093A1387093A23891E09093C5
:10133000A338809309049F918F917F916F915F9162
:101340004F910F900FBE0F901F9018951F920F9204
:101350000FB60F9211248F939F93AF93BF9381E0A9
:101360008093460A8091913890919238A091933859
:10137000B09194380196A11DB11D8093913890933E
:101380009238A0939338B0939438BF91AF919F91C6
:101390008F910F900FBE0F901F901895CF93DF93F2
:1013A000CDB7DEB7C456D109CDBFDEBFC090400077
:1013B000C092400088ED90E084BF9093100184BFFC
:1013C000909361008CE88093010492E7909302046B
:1013D0008093060483E0809314048093150495E0C1
:1013E000909321042FE13EE420934C0A30934D0A60
:1013F00091E09093450A1092410A9093400A26EB9F
:1014000032E0209308083093090891E8909305088A
:101410008093070880EC809306088E010F5F1F4FB2
:101420007801D12C8D2D0E948108D7018D937D01EB
:10143000D394B6E0DB12F6CF89818093B9388A81E4
:101440008093BA388B818093BB388C818093BC3871
:101450008D818093BD388E818093BE3889EB98E36F
:101460000E94730781111DC08091B93889838091D2
:10147000BA388A838091BB388B838091BC388C8347
:101480008091BD388D838091BE388E83F12CF80118
:1014900061918F018F2D0E94CD08F394F6E0FF1229
:1014A000F6CF8091BE389091BD389093AF388823A5
:1014B00009F4DAC18D3308F08CE348EE53E0849FE1
:1014C0009001859F300D11242093B0383093B138AE
:1014D0001092B2381092B3381092B4381092B638D5
:1014E0001092B7381092B8381092AE381092B538C2
:1014F0008FEF890F8A3F08F0B9C122E030E02093D6
:10150000AB383093AC389093AD388BE998E080934A
:10151000E4389093E53883E099E08093E63890933F
:10152000E7381092E8381092E93880E190E0809333
:10153000EA389093EB388093EC388FEF8093ED3856
:101540001092EE381092EF38F12CE12C412C0FEF75
:1015500010E03E2C2091EA38C701880F991F820FB6
:101560000E948108582E2FEFD82E6E2C772473946A
:10157000821384C15FEFE51AF50A80E1E816F104F1
:1015800041F79091ED389F3F79F02091EA38309102
:10159000EB382F5F3F4F990F892F820F0E948108F0
:1015A0008093EF388F3F09F480E03091B938309361
:1015B000C1389091BA389093C2389091BB389093CB
:1015C000C3382091BC38922F91709093C4381092F8
:1015D000C5381092C6381092C7381092C838109289
:1015E000C9381092CA381092CB381092CC38109269
:1015F000CD381092DE381092DF381092E038109219
:10160000E1381092E2381092E3381092CE381092FE
:10161000CF381092D0381092D1381092D238109220
:10162000D3381092D4381092D5381092D638109200
:10163000D7381092D8381092D938992329F08823B6
:1016400019F091E0381708F490E090FF5BC121FD9C
:1016500059C18093C53881E08093C93881E090E01A
:101660008093BF389093C0381092DA381092DB38EC
:101670001092DC381092DD38C3FE17C085E08093ED
:10168000CA381092E2381092E3381092C83883E0DA
:1016900090E08093BF389093C0381092DA3810925F
:1016A000DB381092DC381092DD388091BF38909191
:1016B000C0388093A9389093AA380E94B40788ED67
:1016C00098E084BF909300017894F89480919138C9
:1016D00090919238A0919338B0919438789418A64C
:1016E00019A61AA61BA61CA6412CF894C0909138E6
:1016F000D0909238E0909338F09094387894160116
:10170000281A390A8C159D05AE05BF0509F0A89564
:10171000F8948091A838882351F08090A438909054
:10172000A538A090A638B090A7381092A838789421
:101730008823F1F18091CE389091CF38A091D038A4
:10174000B091D13895018401081B190B2A0B3B0B72
:10175000D901C8014497A105B10550F18092CE3856
:101760009092CF38A092D038B092D1388091DF38A3
:10177000882329F08091E0388F5F8093E038809152
:10178000BF389091C038029799F48091C538609124
:10179000C1380E94D3129F5F9093C5381092DE38F3
:1017A0000E94BF06811104C0C501B4010E94160742
:1017B000F8948091A338882351F080909F389090BE
:1017C000A038A090A138B090A2381092A338789495
:1017D000882309F443C08091D2389091D338A091E6
:1017E000D438B091D538A5019401281B390B4A0B88
:1017F0005B0BDA01C9014497A105B10578F180922C
:10180000D2389092D338A092D438B092D538809103
:10181000BF389091C038892B09F58091E13881114A
:101820007BC021E02093E1388091C2386091C138BB
:101830000E94D3129F5F9093C5382093C9381092AD
:10184000E0388091DF38882309F481C08092DA384B
:101850009092DB38A092DC38B092DD385524539456
:1018600066246394712C81C081E027CE1092AB383E
:101870001092AC381092AD3848CE73946091EC3829
:10188000761620F570E0CB01860D911D01970E9420
:10189000DF129C01682E8D2D90E082509F4FB80181
:1018A0000E94DF12D82E220F331F6091EA38709108
:1018B000EB38620F731FE091E438F091E5388091C6
:1018C000E8389091E9380995D816B9F28091ED3849
:1018D0008F3F31F43092ED385092EE38472C4ACE9B
:1018E0004714C0F3741046CE8091EE38A801481B0F
:1018F0005109CA01850D911DB8010E94DF12181609
:101900004CF338CE81E08093DF388093E238109238
:10191000BF381092C038A8CE8091E0388093CB3881
:101920001092DF38883299F08F7E803481F083E026
:101930008093CA381092E2381092E3381092C83877
:1019400083E090E08093BF389093C0387FCFC5018B
:10195000B4010E94160782CF8CA58111A7C03AEA74
:10196000431201C05CA64424439490919038809126
:101970008F3898137BC44420A9F020919E38F894A6
:101980008091913890919238A0919338B091943889
:101990007894821B833030F018A619A61AA61BA6CD
:1019A0001CA6412C8091BF389091C038009709F453
:1019B0008BC4029709F402C52114310409F0C0C494
:1019C0008091E238882309F4A0C580E8809305045B
:1019D0008091B438882309F49CC584E08093050481
:1019E00080919A3890919B38A0919C38B0919D3805
:1019F00097018601081B190B2A0B3B0BC901B80183
:101A000020919938222399F00091953810919638B9
:101A100020919738309198380C191D092E093F09EB
:101A2000101611061206130614F010929938009140
:101A3000BF381091C03820919938222309F46DC520
:101A40002DE730E040E050E00E940713217009F4D8
:101A50006DC5C701B60124E130E040E050E00E94CE
:101A6000071321E030E0672B682B692B11F030E081
:101A700020E0232B09F45AC588E080930504809167
:101A8000A9389091AA388017910759F0C8018D7F25
:101A9000892B09F04FC50E949D060093A938109329
:101AA000AA380E949E08D701C6011FCE45E5441200
:101AB0000AC08AEA89834A8282E090E088A799A7CF
:101AC0001AA61BA650CF9AEA491609F44CCF1CA6B9
:101AD0004ACF90E003968AA79BA745CF2AA53BA5AE
:101AE0002115310509F43FCF8217930709F03BCF49
:101AF0004B814450A1964FAFA197B8016350710933
:101B0000CE0103960E945907FE01E00FF11F2081CC
:101B1000342D18A619A61AA61BA61CA68217930771
:101B200009F0D0C31C811DA70D810EA7A196AFADF2
:101B3000A1976096AFAF60974A2F50E0BE016A5FF1
:101B40007F4FCE018F960E943813E6E8F6EA90E0C8
:101B500080E020811213C5C023E0880F991F2A95C9
:101B6000E1F7FC01EA57F945238134812130310541
:101B700009F4C3C008F4BCC02230310509F4C1C067
:101B800060962FAD60978A579945FC0185819681B3
:101B900097FD04C02817190609F094C3213208F0F4
:101BA00091C3809108048270113509F4AEC01235DA
:101BB00009F4D0C0103581F46092AB387092AC3823
:101BC0001092AD381092AE381092B4381092B538E9
:101BD0001092B2381092B3388091B838882341F10E
:101BE00020E050E040E06091AD3881E50E94D207EE
:101BF0009091B8389923E1F02091AB383091AC380E
:101C000022303105A9F48111C9C01092AD3810926B
:101C1000AE381092B43886E08093B6381092AB3864
:101C20001092AC385092B5381092B2381092B33846
:101C30008091B738882339F06091AF386093BD3810
:101C400084E00E94CD081092B7381092B838809185
:101C5000B438882309F4ADC034E030930504809192
:101C6000AB389091AC381091AD388230910509F0C5
:101C700010E04EA5442349F0029721F481E09091B1
:101C8000AD38941380E080FF1DC38DA5803309F427
:101C9000EDC108F0BAC0833009F402C108F08DC06C
:101CA000813009F4ECC0823009F00CC3112309F42F
:101CB00009C360968FAD6097811708F403C3EEE205
:101CC000F0E0EC0FFD1FE10FF11D8081882309F486
:101CD000F9C29091C138981708F4F4C28093C638BD
:101CE000F1C2019638968431910509F032CFEAC2EB
:101CF00001500A3F08F444CFE5C2002309F440CF65
:101D0000E1C20B3F08F43CCFDDC2213009F064CFC3
:101D10009FA53FEF390F3A3F08F05ECF4091AB38B7
:101D20005091AC384130510509F056CF882309F461
:101D300053CF8091B43881114FCF9093AD3810922A
:101D4000AE382093B83802E010E00093AB3810931F
:101D5000AC3842CF8091AB389091AC38019709F004
:101D60003BCF8091AF389FEF980F9A3F88F48093D4
:101D7000AD381092AE3822E030E02093AB3830938B
:101D8000AC381092B2381092B3381092B53824CFD4
:101D90008AEF8093AD385092AE38EDCF8091AD3858
:101DA0008093AF385092B7385092B4381092B6380A
:101DB0003FCF44E04093060452CF803109F4D2C0B3
:101DC000803209F412C1843009F07CC21092C83804
:101DD0001092E2388091BF389091C0388D7F892B66
:101DE00071F46092BF387092C038C092DA38D092E5
:101DF000DB38E092DC38F092DD381092E338612F66
:101E000084E0442309F45EC248C0833509F4F1C17B
:101E100020F5803409F4C5C1813409F4E1C181336E
:101E200009F050C28091B93861968FAF6197809167
:101E3000BA3862968FAF62978091BB3863968FAF46
:101E400063978091BC3864968FAF649724E0AE01AD
:101E5000405B5F4F612F81E3C3C0853509F4F1C159
:101E600008F4D7C1803F09F02DC261965FAE61973B
:101E700021E0AE01405B5F4F612F80EFB1C08FA5C5
:101E8000882331F09091C138981710F08093C638AC
:101E9000612F81E0442309F415C20E947C0812C21C
:101EA0008091BF389091C0388230910531F08330F5
:101EB000910531F0892B09F050C05092C83802C208
:101EC0001092CA388091C938882389F06092BF384F
:101ED0007092C038C092DA38D092DB38E092DC38A9
:101EE000F092DD381092E2381092E338EBC1109294
:101EF000E13881E09091CB38911180E08093DF3818
:101F00001092E0381092DE385092E2381092E338A6
:101F1000C092D238D092D338E092D438F092D538EB
:101F2000C092CE38D092CF38E092D038F092D138EB
:101F3000C092D638D092D738E092D838F092D938BB
:101F40001092BF381092C038C092DA38D092DB3885
:101F5000E092DC38F092DD38B5C1C701B6010E94CD
:101F6000D406B0C18091C53861968FAF61978091DA
:101F7000C63862968FAF62978091BF389091C03813
:101F80008430910580F58A5D9845DC018C916396DB
:101F90008FAF63978091CA3864968FAF64979091A2
:101FA000CB3865969FAF65972091CC389091CD380E
:101FB00066962FAF669767969FAF679768965FAEF6
:101FC0006897811107C08091B6381092B638649630
:101FD0008FAF649728E0AE01405B5F4F612F80E1D7
:101FE0000E945D086FC183E0D2CF1092CA38109270
:101FF000C8381092C9381092E13881E09091CB38FE
:10200000911180E08093DF381092E0381092DE3832
:102010005092E2381092E338C092D238D092D3383E
:10202000E092D438F092D538C092CE38D092CF38E2
:10203000E092D038F092D138C092D638D092D738CA
:10204000E092D838F092D9381092BF381092C03848
:10205000C092DA38D092DB38E092DC38F092DD388A
:10206000612F80E2442309F42DC117CF86E0E9EB0C
:10207000F8E3DE01A65ABF4F01900D928A95E1F771
:102080008FA56B968FAF6B9788A96C968FAF6C9767
:1020900089A96D968FAF6D978AA983706E968FAF61
:1020A0006E97CE01865A9F4F0E947307612F80E37F
:1020B0000E947C086B968FAD6B9761968FAF61978E
:1020C0006C968FAD6C9762968FAF62976D968FAD61
:1020D0006D9763968FAF63976E968FAD6E9764968C
:1020E0008FAF64976F968FAD6F9765968FAF65973B
:1020F000A0968FADA09766968FAF66978E01005B16
:102100001F4F412CF80161918F01842D0E94CD0851
:102110004394F4E04F12F6CF86E0FE01E65AFF4FFB
:10212000A9EBB8E301900D928A95E1F78091BB3855
:102130008093C3388091BC3881708093C43890916B
:10214000B9382091C1388091BA38921304C02091D7
:10215000C238821719F19093C1388093C238109217
:10216000C8381092DF381092C9381092C5381092D2
:10217000C6381092C73804E00093CA386092BF385E
:102180007092C038C092DA38D092DB38E092DC38F6
:10219000F092DD381092E2381092E3380E94B407D2
:1021A00091C05FA5252F30E0A8EEB3E00E9429136F
:1021B0006C0D7D1D8E1D9F1D609395387093963814
:1021C000809397389093983881E0511101C080E056
:1021D00080939938442309F475C0612F80E45DCE63
:1021E000C0929A38D0929B38E0929C38F0929D38F9
:1021F00069C0FE01E05BFF4FA3E0B1E1AF018D914B
:102200008193AD3021E1B207D1F72AE0612F83E558
:10221000E7CE61965FAE619762965FAE629780E1AE
:1022200063968FAF639783E064968FAF64976596EC
:102230001FAE659725E0AE01405B5F4F612F84E5DF
:10224000CFCE30E83093060440904E3841100BC09A
:102250008091021081FDFCCF87EB8CBB88ED84BFA1
:102260005092410082CB0E949E08EECFE0919038C0
:10227000F0E0E15BF74C4080809190388F5F8F7386
:102280008093903808A519A50115110509F464CBB0
:10229000C801019688A799A7E1E0F0E0EC0FFD1FC7
:1022A000E00FF11F40828330910509F017CC8B813C
:1022B0009CEF980F913208F40CCC18A619A61AA618
:1022C0001BA61CA6412C51CB8091DA389091DB38AB
:1022D000A091DC38B091DD3897018601081B190BFD
:1022E0002A0B3B0BD901C801803A9F40A105B105DB
:1022F00008F462CB8091E138882339F01092DF38FE
:10230000C701B6010E94160757CB82E08093CA38F6
:102310001092E2381092E3381092C83883E090E0CF
:102320008093BF389093C038C092DA38D092DB38AF
:10233000E092DC38F092DD382114310409F4E5C074
:102340008091AB389091AC388130910509F4CAC0C6
:10235000892B09F0CAC08091B53880FF31CB8091BC
:10236000B2389091B338810130E020E0080F191F96
:10237000211D311D4091B0385091B13870E060E0BE
:10238000041715072607370708F4B8C08091AF383F
:102390009FEF980F9A3F08F0AAC08093AD38109233
:1023A000AE3882E090E08093AB389093AC381092D6
:1023B000B2381092B3381092B53802CB8091D6382B
:1023C0009091D738A091D838B091D938A70196010B
:1023D000281B390B4A0B5B0BDA01C901803A9F407D
:1023E000A105B10510F085E091CF1091E3388091FF
:1023F000CE389091CF38A091D038B091D138A70184
:102400009601281B390B4A0B5B0BDA01C901883C8A
:102410009105A105B10500F111111EC08091DE38B2
:10242000833030F081E08093CA381092E23874CF64
:102430008F5F8093DE388091CC389091CD380196B3
:102440008093CC389093CD38C092CE38D092CF388C
:10245000E092D038F092D1380E94BF06E82F813048
:1024600009F511111FC09091C3384CE350E0491B8E
:10247000510970E060E08091CE389091CF38A09102
:10248000D038B091D13897018601081B190B2A0B5F
:102490003B0B041715072607370720F01092E23888
:1024A000E093E3388091E338882309F485CA80916A
:1024B000CE389091CF38A091D038B091D138A701C3
:1024C0009601281B390B4A0B5B0BDA01C901843BCF
:1024D0009105A105B10508F46FCA8091C7388093B2
:1024E000C5380ECF81E090E038CF80E036CF8AEF5C
:1024F0008093AD3881E08093AE3853CF280E391EDB
:102500002092B2383092B3385BCA80E880930604D8
:102510005FCA84E08093060463CA0330110509F0A2
:1025200098CA24EF31E040E050E08ECA88E0809302
:102530000604A5CA0130110509F0AFCA8091BC3864
:1025400080FF13C08695817091E0892780FFA5CA1E
:102550008091C938882309F4A0CA8091C53888239E
:1025600009F49BCA0E94AD0698CA80E0EFCF03D061
:10257000808199270895FC01E050FC4E0895262F94
:10258000AF93BF93E0E0F0E1328131FDFDCFDC019C
:10259000A050BC4E2C932DE924BF23E0208301964C
:1025A000BF91AF910895991B79E004C0991F9617C8
:1025B00008F0961B881F7A95C9F780950895AA1B85
:1025C000BB1B51E107C0AA1FBB1FA617B70710F01E
:1025D000A61BB70B881F991F5A95A9F78095909550
:1025E000BC01CD01089597FB072E16F4009407D087
:1025F00077FD09D00E94DF1207FC05D03EF49095CC
:1026000081959F4F0895709561957F4F0895A1E240
:102610001A2EAA1BBB1BFD010DC0AA1FBB1FEE1F5C
:10262000FF1FA217B307E407F50720F0A21BB30BA7
:10263000E40BF50B661F771F881F991F1A9469F723
:1026400060957095809590959B01AC01BD01CF017F
:102650000895A29FB001B39FC001A39F700D811D7B
:102660001124911DB29F700D811D1124911D08959B
:10267000FB01DC0102C001900D9241505040D8F79F
:062680000895F894FFCF5D
:102686000179A70000010001022AA70100FFFF004F
:102696000332A701000000000435A7020000000174
:1026A600103AA700000000012045A7020000000123
:1026B600304AA700000400013155A70000000001C0
:1026C6004060A700000100014169A7010000000069
:1026D6005072A70100000000517DA7010001000112
:1026E6005289A701000000005393A70000000001D3
:1026F600549BA7000000000155A7A7020000000098
:1027060056B8A7000004000157C1A70000FFFF014B
:1027160058C9A70000000001F0D0A7000000000182
:10272600010002035345545F414C4C00474F005390
:10273600544F50004745545F535441545553004835
:102746004F4D45005345545F434F4E46494700475A
:1027560045545F434F4E464947004944454E544908
:102766004659004C45445F53594E4300454E554D1E
:102776005F524553455400454E554D5F41535349AD
:10278600474E00454E554D5F444F4E450047455414
:102796005F554944004745545F56455253494F4E8D
:1027A60000454E5445525F424F4F544C4F414445AD
:1027B600520046575F424547494E0046575F4441DF
:0F27C60054410046575F454E440050494E47006E
:0400000300000C00ED
:00000001FF
